:1000000000000420C15B0200015C020019600200D4
:10001000055C0200075C0200095C020000000000B1
:100020000000000000000000000000001168020055
:100030000D5C02000000000031680200115C02004B
:10004000C16B0200E9530100C5290200135C0200E4
:10005000135C0200135C0200F92A0200135C020028
:10006000135C0200135C0200135C020001540100E7
:10007000135C0200F5530100135C0200135C0200E4
:10008000135C0200C52F0200135C0200135C020027
:10009000135C0200135C0200135C0200135C02009C
:1000A000135C0200135C0200135C0200135C02008C
:1000B000135C0200135C020000000000000000005E
:1000C000135C0200135C0200135C0200135C02006C
:1000D000135C0200135C0200135C0200135C02005C
:1000E000135C0200135C0200135C020000000000BD
:1000F00000000000135C020000000000135C02001E
:1001000000000000000000000000000000000000EF
:1001100000000000000000000000000000000000DF
:1001200000000000000000000000000000000000CF
:1001300000000000000000000000000000000000BF
:1001400000000000000000000000000000000000AF
:10015000000000000000000000000000000000009F
:10016000000000000000000000000000000000008F
:10017000000000000000000000000000000000007F
:10018000000000000000000000000000000000006F
:10019000000000000000000000000000000000005F
:1001A000000000000000000000000000000000004F
:1001B000000000000000000000000000000000003F
:1001C000000000000000000000000000000000002F
:1001D000000000000000000000000000000000001F
:1001E000000000000000000000000000000000000F
:1001F00000000000000000000000000000000000FF
:1002000010B5054C237833B9044B13B10448AFF350
:1002100000800123237010BD600300200000000057
:1002200054DE020008B5034B1BB103490348AFF38A
:10023000008008BD000000006403002054DE0200BE
:10024000A3F5803A704700BF174B002B08BF134B34
:100250009D46FFF7F5FF00218B460F461348144AD1
:10026000121A27F097FC0E4B002B00D098470D4B2D
:10027000002B00D098470020002104000D000D48FD
:10028000002802D00C48AFF3008027F0FDFB2000CF
:10029000290025F057FC27F0E3FB00BF0000080011
:1002A00000000000000000000000042060030020A7
:1002B000A4590020000000000000000008B5012142
:1002C0000D2026F09DF80D2026F01CF901210E20AE
:1002D00026F096F80E2026F015F901210F2026F0C1
:1002E0008FF80F2026F00EF91020012126F088F853
:1002F000BDE80840102026F005B90000014B00229F
:100300001A7070470105002070470000014B002261
:100310001A70704714050020014B01221A707047B3
:100320004B04002070477047704770477047704714
:1003300010B50B4C322022F0E6FD0A4B206801225A
:100340001A7060B106F012FB48B12068002106F077
:10035000C7FABDE810400449044822F0A7B910BD0F
:1003600078060020010500202F8502001C3900209E
:1003700010B5044625F020FC204610BD10B50446FB
:1003800025F01AFC204610BD10B5044625F014FCDB
:10039000204610BD10B5044625F00EFC204610BDC9
:1003A00010B5044625F008FC204610BD084625F08F
:1003B00031BC084611461A4625F030BC08461146A5
:1003C00025F02ABC25F050BC08B525F04DFCBDE851
:1003D0000840400025F024BC00F5E0704FF0A04339
:1003E000032243F82020704773B5044622F07CFDB9
:1003F0001449154E0B780546144883B13268AA1A81
:10040000B2F5487F12D901230B70114904702B46B5
:100410002246104822F04AF9356002B070BD01232F
:100420000B7004700C492B462246F2E70133DBB215
:100430000B70047009490748CDE90052224622F0AA
:1004400035F9E9E74C060020500600204D06002053
:10045000658502001C390020A2850200CE850200BD
:100460004FF0A0430622C3F82C27C3F83C27C3F85B
:100470005027C3F83427C3F86427704708B50B200A
:10048000FFF7AAFF0F20FFF7A7FF1420FFF7A4FF35
:100490000D20FFF7A1FFBDE808401920FFF79CBF22
:1004A0002DE9F8434FF0A043604A614FC3F8682735
:1004B0006049614E614DDFF89C81614C03221A2036
:1004C00022F0B4FA3868032125F09AFF306803213E
:1004D00025F096FF2868032125F092FF386825F063
:1004E000F1FF012350BB88F800003068237025F02D
:1004F000E9FFDFF8649128BB89F80000022328682F
:10050000237025F0DFFF4F4A08BB1070032398F8D3
:100510000000237099F800103B681278002846D13B
:10052000D9B9C2B9042020701F2B1DD9464803F049
:100530001F0303F5E0734FF4013441E088F8003005
:100540000723D2E7012389F800300723D7E70123E7
:1005500013700723DBE70520E5E7002AE4D1062036
:10056000E1E74FF0A04027E04FF0A040E1E71F2B6C
:1005700086BF03F01F0334494FF0A04103F5E07339
:100580004FF401302CE01F2B86BF03F01F032E4ACF
:100590004FF0A04203F5E0734FF4013130E04FF427
:1005A00041323BE04FF0A04340F20E4236E01F2BB9
:1005B000D7D9254803F01F0303F5E0734FF4413406
:1005C00040F8234033680029D1D01F2B86BF03F0A9
:1005D0001F031D494FF0A04103F5E0734FF4413074
:1005E00041F823002B68002ACDD01F2B86BF03F0D3
:1005F0001F03154A4FF0A04203F5E0734FF4413159
:1006000042F82310114B1B78002BCBD0104B1A78DB
:100610004FF0A043002AC2D04FF40132C3F87C2728
:100620000A20BDE8F84322F06EBC00BF0C040300B2
:1006300008000020190300000C000020100000201A
:1006400023000020A2060020000300500500002027
:1006500091030020A0060020A10600204FF0A04337
:100660004FF40842C3F80C25014AC3F80825704727
:1006700000201002F8B50446069F16461D46FFF7F7
:10068000FDFE012C32D14FF0A0434FF40042C3F8DD
:100690000C254FF40062C3F80825C1F1FF011420B6
:1006A00025F05CFEC6F1FF010D2025F057FEC5F1D7
:1006B000FF01192025F052FEA7B1384622F023FC95
:1006C0004FF0A0434FF40842C3F80C25FF2114203B
:1006D00025F044FEFF210D2025F040FEFF211920CA
:1006E00025F03CFEBDE8F840FFF7BABE022C0FD162
:1006F0000A4BB3F9062040F647539A4208DD4FF003
:10070000A0434FF40062C3F80C254FF40042C2E747
:100710004FF0A0434FF40842BDE700BF180500208A
:100720002DE9F0414FF0A04706464FF40848144623
:100730000D46FFF7A3FEC6F1FF01C7F80885142098
:1007400025F00CFEC5F1FF010D2025F007FEC4F1D8
:10075000FF01192025F002FE322022F0D4FBC7F859
:100760000C85BDE8F041FFF77BBE000038B51B4BA0
:100770001B4D1B782A781B491B4CABB11B4B0978CE
:100780001B78994218BF0123194918BF2370002311
:100790000B6018494FF47A600860EAB923783BB9D6
:1007A000154B1B7823B938BD0B702370002AF7D086
:1007B000124B1A7862B901221A7022F095FB104B85
:1007C000186022F091FB0F4902460F4821F06EFF9E
:1007D00000232B702370E6E72370E9E70500002073
:1007E000A1030020910300208F030020900300202C
:1007F0001400002018000020BD06002085060020FF
:1008000088070020AD8602001C39002008B5074B80
:1008100001221A6022F068FB054B186022F064FB8D
:10082000044B1860BDE8084022F05EBB3C0000208D
:10083000980300209C030020F0B5364C364B2278FC
:100840001A704FF0A04385B0D3F8102512F0005F66
:1008500082F0805314BF00210221C3F3007312F011
:10086000100F14BF002204220B4313432B4A1278AB
:1008700002F0FD01012945D103F00503284D237045
:1008800021782B78994239D0FF2B37D0254A264E34
:100890001068052900F10100106001D0052B02D17C
:1008A0003268013232600329204F01D0032B02D17C
:1008B0003A6801323A600729DFF884C001D0072B7B
:1008C00004D1DCF800200132CCF80020072B96BFC1
:1008D000174A184A52F82320072996BF144B154B84
:1008E00053F82130DCF80010039139680291316827
:1008F000CDE900011049114821F0D8FE23782B7072
:1009000005B0F0BD022A01D0042AB7D103F00303D9
:10091000B4E700BF000500204805002020000020AB
:1009200004000020880300208403002080030020AE
:10093000D4A90200FE860200028702001C390020B2
:100940007C030020F8B522F0CFFA144B1C78144B2E
:100950001A78944221D01349134B144D1A700B7816
:10096000EC54013303F007030B70114B1860114B6B
:10097000196859B1411AFE2908D80F4E31780A2753
:100980000131B1FBF7F507FB1511317018600B4B06
:10099000186012B10CB90A4B1A70F8BD000500209E
:1009A00048050020BF06002088060020C70600205A
:1009B00044050020E4030020E00300204C05002053
:1009C0004905002070B522F08FFA514B1A78012AA0
:1009D00025D1504B1B7833BB4F4B1B68C01A4F4B74
:1009E0001B7813B9B0F57A7F1DD24D4B1B78590790
:1009F00011D4012B17D14B4A52F823204A494B4BB3
:100A0000B0F57A7F38BF0B4649494A4821F04EFE7F
:100A10000124204670BD072BEDD9474AEEE702F0CE
:100A20000503012B5CD13B4B1C78042C04D14349BA
:100A3000404821F03BFEEBE7052A4BD10024E8E7D4
:100A4000072B02D13E4A3F495DE0042A30D19A0784
:100A50002ED43D4B1B7803F0FD03012B17D13B4EE9
:100A60003278A2B13A4B1C788CB122F03DFA394B66
:100A70001B68C01AC7280AD82B78072B10D92E4A12
:100A800035492C4821F012FE00233370C1E72B7842
:100A9000072B09D9284A3149264821F007FECDE71E
:100AA000204A52F82320EBE71E4A52F82320F2E7AF
:100AB000062B02D12A4A2B4925E0052B02D12A4ACE
:100AC0002A4920E0072B96BF164A1B4A52F82320DA
:100AD000274918E004F00504231F5C425C4198E7B5
:100AE000052AABD10B4B1B78042BA7D10C4D2B78CF
:100AF00003F00502012AA3D1072B96BF094A0E4A2B
:100B000052F823201B490B4821F0D0FD80E700BF9D
:100B10004805002000050020300500208606002042
:100B200088060020D4A90200358702003987020018
:100B30003C8702001C390020FE86020081870200EB
:100B4000E28D0200DA8702002000002094070020D6
:100B5000A2030020C4030020078802003F8802008F
:100B60008088020084880200B0880200B4880200F5
:100B7000E1880200A4870200F8B5334B187800F032
:100B80000503042B50D1314B1B78012B4AD005288B
:100B900001D1002057E003F00500431E58425841A0
:100BA00051E00028F5D1294B1B78012B4BD1284B64
:100BB0001B7803F00503042B45D1264C264E2568EF
:100BC00033689D4205D92549254835602A4621F0DC
:100BD0006DFDFA2D08D93368224921482A4621F0B3
:100BE00065FD002020602EE01F4D204F22F07CF993
:100BF0002A78012A064608D13A68821A632A04D85C
:100C00001B49174821F052FDC3E71A49144821F047
:100C100037FD134821F038FD0023012023603E609A
:100C2000287010E018460EE00528BAD1074B187856
:100C30000128AED1064B1B78072B04D003F005002A
:100C4000013818BF0120F8BD48050020000500202C
:100C500088060020C0020020DC0300201289020068
:100C60001C3900204D8902003C0500203805002079
:100C7000A2890200DC89020070B522F035F95E4BD2
:100C80001C78012C34D15D4B1B78002B30D15C4B90
:100C90001D685C4B1B78451B13B9B5F57A7F27D2CD
:100CA000594E3278910701D4012A21D15749584829
:100CB00021F0E6FC33785648072B96BF554A564933
:100CC00052F8231021F0DCFC5449514821F0D8FCA3
:100CD000534B54494E48B5F57A7F28BF194621F049
:100CE000CFFC51494A4821F0D7FC0124204670BD71
:100CF00004F00305012D0BD1404B187802286AD16E
:100D00004A49434821F0BCFC414821F0BDFCECE7D6
:100D1000032C68D1394B1B78022B5AD13A4C4449E9
:100D20003B4821F0ADFC22783948072A96BF394B61
:100D3000394953F8221021F0A3FC3E49344821F0F0
:100D40009FFC237803F00304012C04D13A49304876
:100D500021F0A2FCCAE7072B01D13849C2E7022CD7
:100D600004D113F0040401D13549F0E7062B01D179
:100D70003449B7E7032B01D13349B3E7052B0CBF47
:100D800032493349AEE700F00300831E5C425C4108
:100D9000ACE7F4B9194B1B78022BA7D11A4B187882
:100DA00000F00305012DA1D12A4E326840F2EE2356
:100DB0009A4205D92849164821F078FC346095E715
:100DC0002649134821F05CFC114821F05DFC346099
:100DD0008BE700248AE7032CFBD0072C05D00328DF
:100DE000D1D11F498DE7072CD3D1044B1B78022B9F
:100DF000EFD11C4985E700BF480500200005002011
:100E0000300500208606002088060020058A0200A2
:100E10001C390020D4A90200FE860200338A020099
:100E200039870200358702004BAB0200418A02007D
:100E3000628A0200908A02009D8A0200AD8A020046
:100E4000BF8A0200D58A0200E78A0200F98A0200FE
:100E50000B8B0200C0020020768B0200BF8B0200C9
:100E60004D8B0200248B020070B5534B187800F0B4
:100E70000303022B0BD1514A1478012C07D150499E
:100E8000504821F0FDFB4F4821F0FEFB21E00328F4
:100E90004FD14A4B1B78022B2ED14B4C4B49494822
:100EA00021F0EEFB22784748072A96BF484B494974
:100EB00053F8221021F0E4FB4749424821F0E0FBBF
:100EC000237803F00302022A05D144493D4821F06A
:100ED000E3FB012070BD062B01D14149F6E7072B4A
:100EE00001D14049F2E7012A0CBF3F493F4935484B
:100EF00021F0D2FB0020EDE7012BFBD1324C3C4925
:100F0000304821F0BDFB22782E48072A96BF304B8F
:100F1000304953F8221021F0B3FB2A4821F0B4FBEA
:100F200020780728D5D000F00300013818BF012031
:100F3000D0E7072805D1214B1C78012CDAD12D49A7
:100F40009EE7022B0BD11D4B1878032801D12A49AB
:100F500096E700F00300431E58425841BAE70028C4
:100F6000C8D1164B1B78012BB4D1174B1B7803F05B
:100F70000303022BAED1214C214E25683368AB42CE
:100F800005D220490F4835602A4621F08FFBFA2D03
:100F900008D933681C490B482A4621F087FB0020FA
:100FA000206097E71949074821F06AFB054821F0BE
:100FB0006BFB002323608CE7480500200005002020
:100FC000EC8B02001C390020880600200B8C0200EC
:100FD000D4A90200FE860200908A0200398C020029
:100FE000D58A0200AD8A0200498C02005F8C0200A3
:100FF000718C0200928C0200B98C0200C0020020A9
:10100000E8030020E08C02001D8D0200728D0200BA
:1010100010B5074C0749204621F03EFB0649204603
:1010200021F03AFB20460549BDE8104021F034BBD1
:101030001C3900209D8D0200BD8D0200E68D02004E
:1010400008B5282200210C4826F0A4FD0B4B0C48C3
:10105000002119700B4B19600B4B19600B4B196079
:101060000B4B19700B4B19700B4B1970BDE80840F6
:10107000322226F08FBD00BFD80400204406002095
:10108000CF060020900700207C0700200C050020E0
:10109000080500208C0700208407002008B5074BB6
:1010A0001A784AB901221A7021F01EFF044B186009
:1010B000BDE80840FFF7C4BF08BD00BF44060020DC
:1010C000480600200C4B5A7B312A07D805221A7794
:1010D000DA7B1E2A0BD932225A777047632A01D84D
:1010E0000A22F4E7C72A94BF14221E22EFE70A2A35
:1010F0008CBF6422C822EFE7D804002010B400217E
:1011000015480B460A4610F8014B14B1013322442E
:10111000DBB201316429F6D11BB1B2FBF3F30F4A04
:1011200053730F4B196899B10E4B0C481A6864231E
:101130005A43B2FBF1F282730B4A12685A43B2FB74
:10114000F1F2C273094A12685343B3FBF1F34374DB
:101150005DF8044BFFF7B6BF5D040020D804002003
:10116000C804002050040020C404002058040020BB
:10117000431E092B2DE9F743054617D819481A4E87
:1011800021F012FA642015FB00F501230DF107028E
:101190001448002405F5FA718DF8074021F03AFA59
:1011A0009DF807305A1E132A03D9347003B0BDE8E6
:1011B000F083DFF838800B4F33704FF00C09E0B24A
:1011C00009FB00F005F2F51108EB00020C230144C5
:1011D000384621F01FFA01343278E3B29A42EED851
:1011E000E4E700BFAC030020840600205405002083
:1011F000F8B5451EEBB2092B04461AD80D4E0E4821
:10120000282721F0D1F907FB05F10B483B46324670
:10121000643121F0FFF93078A04206D03A463046DA
:101220000021BDE8F84026F0B5BCBDE8F840FFF766
:101230009FBFF8BDD8040020AC030020124AD37F22
:10124000312B1FD9452B8CBF00200F20D37B0B3BAC
:101250001C2B137C9CBF1430C0B23BB103EB830347
:101260005B001E2BD4BFC0181E30C0B2537C632B52
:1012700007D8C3F164035B10192BD4BFC018193011
:10128000C0B270471920E1E7D8040020F8B5214921
:10129000C87B8A7B002839D002EB82035B00B3FB5A
:1012A000F0F3DBB28B771C4B1C4E1F7800200446FA
:1012B000FF23C5B2AF420CD916F8015B15B1AB42A2
:1012C00028BF2B46AC4200F1010038BF2C46322823
:1012D000EFD16420E4B113FB00F3B3FBF4F3DBB212
:1012E000CB774B7C02EB5303642BA8BF642381F8BC
:1012F00021300B4B1B78042B8CBFFF230F2381F86D
:101300002030FFF79BFF81F82200F8BDFF23C9E7DB
:101310000346E5E7D804002084070020CF0600201C
:10132000BF060020294B1A7870B5002A4DD0002244
:101330001A70274B1868002847D0264B1D68264B8B
:10134000642101FB05F4B4FBF0F45C74234C2478B5
:1013500014FB01F4B4FBF0F49C73214C247814FBCF
:1013600001F4B4FBF0F4DC731E4C24686143B1FB60
:10137000F0F119741C491D4C0E78C3E9050511469E
:101380001046D5B2B54208D214F8015B15B101314F
:101390002844C9B20132322AF3D111B1B0FBF1F1C4
:1013A00059735A7B312A07D864229A74FFF78AFE50
:1013B000BDE87040FFF76ABF632A01D85022F4E706
:1013C000C72A94BF3C222822EFE770BD44060020C4
:1013D000900700207C070020D8040020080500208A
:1013E0008C0700200C05002084070020CF06002079
:1013F00010B503460078002837D00878002834D08C
:101400009A7F887F121A002AB8BF5242042A2DDD23
:101410000E2AD0B22CDD1D282CD931288CBF0024F7
:101420000A24DA7FC87F121A002AB8BF5242092A5A
:1014300022DC1E34E4B293F8212091F82100121A24
:10144000002AB8BF5242092A1FDC1434E4B293F8D0
:10145000200091F820305840C043C0B226F00EF969
:101460000A23584304EBE000C0B210BD2824D8E79B
:101470001E24D6E71424D4E7182AD0B201DC143491
:10148000D8E72728D7D80A34D4E7132AD0B201DC0A
:101490000F34DBE71D28DAD80A34D7E7F8B50E4851
:1014A0000E4D0D4F21F080F80124282606FB04F193
:1014B00028232A463C31384621F0ACF82B78A34249
:1014C00004D028220021284626F064FB0134042C95
:1014D00005F12805EAD1F8BDAC030020040700207F
:1014E00038B5154C237803F0FD02012A254611D1A9
:1014F000FFF768FA20B12378012B09D0022038BD0C
:10150000FFF73AFB08B90020F9E72378012BF5D063
:101510000120F4E7022B01D0042BF4D1FFF7ACFB40
:1015200010B12B78022BE8E7FFF79EFC0028EAD0E9
:101530002B78022BEBE700BF2000002070B50C4D8C
:1015400004461423002205EBC201087978B915F886
:1015500032604A78A65D013BB2422CBF8A78CA78D5
:1015600013F0FF0301D1184601E00E2AEBD970BD3C
:10157000F4A902002DE9F84300260D4DDFF8348070
:10158000012437462B785FFA84F94BB1294640464F
:10159000FFF72EFFB04203D93C2824BF06464F4632
:1015A0000134042C05F12805ECD13846BDE8F88358
:1015B00004070020D804002007B50C4BDA8BDB7B36
:1015C0008DF802300A4BADF800201B788DF80330FF
:1015D000FFF786FF8DF804006846FFF7AFFF08B9F4
:1015E000FFF7C8FF03B05DF804FB00BFD80400207C
:1015F000A20300200A4B1B78013BDAB2022A0DD865
:10160000084A282101FB0323074A197F1170074A62
:10161000597F117093F82220054B1A70704700BF54
:1016200049040020040700201E0000201F000020A5
:10163000D404002038B5144D1448154C20F0B4FFE4
:1016400001232A464FF41671104820F0E3FF0123CE
:10165000224640F259210D4820F0DCFF0D4A0B488C
:10166000012340F25A2120F0D5FF2A78531E022B85
:10167000094B07D82178272904D901211970074B74
:101680001A7038BD0022FBE748040020AC0300209C
:10169000470400202C0500204604002049040020B7
:1016A000074B0022197811B15969042906D8013273
:1016B000032A03F12803F5D1002070470120704769
:1016C000040700202DE9F8431C4B1878002832D07D
:1016D0001B4B1F785FB31B4BDFF8708093F80090B3
:1016E000002635463446F3B299450ED918F8010B59
:1016F00025F0C4FF022803D10134E4B20136F2E739
:10170000032804BF0135EDB2F8E795B104EB84047A
:101710006400B4FBF5F4E4B2E01B0B4B0028B8BF47
:1017200040421C78C0B284422CBF00200120BDE89A
:10173000F883FF24F0E70120F9E700BF460400200A
:101740002C0500209E060020400000208906002075
:10175000084A137810B563B9074908480B7804782C
:101760000748C4540133DBB2132B0B7084BF012331
:10177000137010BD9D0600209E060020000500206D
:1017800089060020024B01221A70FEF7EFBF00BF4E
:101790009F0600200A4B01221A60D3F80021002A7C
:1017A000FBD00022C3F80021D3F8080500284FF031
:1017B0000102B8BF03305A6040F38700704700BF92
:1017C00000C0004070B521F08FFB114D1149124C43
:1017D0000246284620F06AFF012024F0F9FC0C2084
:1017E00024F0F0FC012021F08EFB1E2024F002FDED
:1017F000E080FFF7CFFFA07321F076FB94F90E3065
:10180000064902462846BDE8704020F04FBF00BFA1
:101810001C390020438E020018050020568E02005D
:1018200073B5304C304B62689A4218D000251422B0
:10183000294604F11900636025726572A572E5728C
:1018400025736573A573E57325746561257626F0A8
:10185000A1F92822294604F1300026F09BF92349FA
:101860002348244E244D20F021FF0120FFF7C0FC27
:101870000FCE0FC50FCE0FC596E8030094F83D308C
:1018800085E803001F3D13B194F83030BBB91B4A03
:101890001B491748012384F830301368C4F83130ED
:1018A00053686B609368AB60782384F83D3042F6F0
:1018B0004603E3875F2384F8413020F0F7FE0023DE
:1018C000237623724FF0FF3294F83D30626100932B
:1018D0000C4994F83F3006482A4620F0E7FE02B053
:1018E00070BD00BFC0020020BEBAFECA768E0200E4
:1018F0001C390020D8040020F00200202E8F0200A6
:10190000B48E0200EB8E020013B5FF236424194647
:10191000009400220120FEF7ADFEFF2319460022AD
:1019200000940220FEF7A6FE204621F0ECFAFEF716
:1019300095FE054A0549127E0548032302B0BDE81D
:10194000104020F0B3BE00BFC00200203A8F02005A
:101950001C39002037B51D48002101230372417254
:101960008172C172017341738173C1730174142256
:10197000193026F00FF903249625FF23194600227B
:1019800001200095FEF776FEFF2300221946022073
:101990000095FEF76FFE962021F0B5FAFEF75EFE89
:1019A000962021F0B0FA013CE7D10949094820F01E
:1019B0007DFE09490748142220F078FE07490548B2
:1019C00003B0BDE8304020F071BE00BFC00200206F
:1019D000748F02001C390020AA8F0200EB8F0200D6
:1019E00070B52D492D482E4E2E4C2F4D20F05EFE09
:1019F0002E4B5B7B3B2B8ABF0A220522B3FBF2F204
:101A0000143B3270A26D322BB8BF3223642A2B7084
:101A10000BD902EB420226492048520820F046FE2C
:101A2000A26D24491D4820F041FE637B8BB9237BC6
:101A30007BB92149194820F039FE2049174820F088
:101A400035FE1F49154820F031FE1E49134820F08D
:101A50002DFE2B7832781C49104820F027FEE37ABF
:101A60001BB91A490D4820F021FE237B3BB9184BC6
:101A70001B78022B03D11749084820F017FE637B1F
:101A80004BB9134B1B78012B05D1BDE870401249AF
:101A9000024820F00BBE70BD389002001C390020B7
:101AA0001E000020C00200201F000020D8040020DB
:101AB000609002009B900200CC900200F190020026
:101AC0002E91020067910200A7910200D8910200B6
:101AD00020000020239202006A92020037B5184DC0
:101AE00095F83D30C21A002AB8BF52420324B3FB16
:101AF000F4F4A24209DDCDE900241249024612485D
:101B000020F0D4FD012003B030BD01F0070107290A
:101B100095F83F3007D1092B0FD80C490A481A46CF
:101B200020F0C4FDEEE7322B07D9952805D80246F0
:101B30000749054820F0BAFDE4E70020E3E700BFCD
:101B4000C0020020B19202001C3900200093020064
:101B50005693020008B54FF0804301221B49DA6713
:101B60000023CA601A484A60C1F800354FF040218E
:101B7000C0F80035C1F80035C0F80035C1F80035AF
:101B8000C0F80035C1F80035C0F80035C1F800359F
:101B900001F54051C1F80035A1F500514A60A1F5A9
:101BA00080410A610B4AC1F8FC3FC2F8003502F5DA
:101BB000A042C2F8003502F58052C2F80035FEF7A7
:101BC0004DFDBDE80840FEF74BBC00BF00200040C3
:101BD0000030004000C0014008B4F0B50E46114688
:101BE00082B00446C81D20F0070000AF07F11C03B7
:101BF000ADEB000D6D4653F8042B3B602846B04713
:101C000004F108030F2805EB00062360786007D96C
:101C10000022391D204624F0EDFF7B682060A36080
:101C200020683246294625F018F87B6822686360F0
:101C3000002120460837D154BD46BDE8F04001B030
:101C4000704770B5041D042320460E46154620F04B
:101C5000ADFB40B9204620F02DFC04232A46314636
:101C6000204620F0A3FB284670BD70B5041D01235B
:101C700020460E46154620F099FB40B9204620F03C
:101C800019FC01232A463146204620F08FFB2846C6
:101C900070BD000010B50B4C201D20F085FC0A4AD9
:101CA0004FF416712046FFF7E0FF084A40F2592131
:101CB0002046FFF7DAFF064A40F25A212046FFF796
:101CC000D4FF10BDA80300204804002047040020D2
:101CD0002C0500202DE9F04F6E4B1B7897B053B1C7
:101CE000FFF7DEFC38B16C4F3B783BB1FFF7EAFC05
:101CF00020B9FFF77FFC17B0BDE8F08F2822002144
:101D000002A825F047FF63238DF80830634BDFF806
:101D1000A8B11B784FF00009C8464C464D464E46C8
:101D20005FFA89F2934201932ED91BF801AB50461A
:101D300025F0A4FC0128019B09D10134E4B2BAF1D9
:101D4000030F0FD148F0010809F10109E8E7022863
:101D5000C2B202D10136F6B2F1E7032A04BF01355F
:101D6000EDB2ECE7BAF1050F08D0BAF1060F08D0D2
:101D7000BAF1070FE8D148F00808E5E748F0020893
:101D8000E2E748F00408DFE773191C4414F0FF048D
:101D90000CD0642316FB03F615FB03F5B6FBF4F633
:101DA000B5FBF4F48DF816608DF817409DF8171008
:101DB0009DF81620002967D002EB82035B00B3FB7D
:101DC000F1F3DBB28DF8263002F11403642BA8BFC7
:101DD0006423334C8DF8293046238DF827300FCCFF
:101DE0000CAD0FC50FCC0FC594E8030085E80300C8
:101DF00002AD0FCDA4F120060FC68DF828800FCDBF
:101E00000FC695E8030084E80300FFF7D5FB0646FC
:101E100000283BD1234D804601242B785FFA84F9BA
:101E20004BB1294602A8FFF7E3FA404503D9282819
:101E300024BF80464E460134042C05F12805ECD120
:101E40000CAD0FCD164C0FC40FCD0FC4164B95E83B
:101E500003001E70154B84E8030083F80080002EF9
:101E60003FF449AF124B9DF826201E70114B1A709B
:101E700001233B70FFF70EFFFFF7BCFBFF2211466B
:101E80000020FEF74DFC36E7FF239BE74FF050089C
:101E9000D6E700BF28000020460400209E06002050
:101EA000D804002004070020480400204704002034
:101EB000490400202C050020890600200A282DE96D
:101EC000F743044631D81A4E337873B31948DFF814
:101ED0006C90184F20F068FB642114FB01F404F5AA
:101EE000FA7115483246FFF7C0FE04F2F5140025DA
:101EF0004FF00C083278EBB29A4216D9142D14D058
:101F000008FB05920C2321463846019220F04EFA38
:101F100040B9384620F0CEFA019A0C2321463846C3
:101F200020F044FA01350C34E4E703B0BDE8F08357
:101F300084060020AC030020A803002054050020E4
:101F40000A2873B506463AD81E4C1F4920460B2274
:101F500000F8016B26F055F800231C48237320F08D
:101F600023FB711E282359436431184801912246EE
:101F700020F01CFA40B9154820F09CFA019913484A
:101F80002823224620F012FA3046FFF797FF012E51
:101F900015D10C4D0E4C0FCD0FC40FCD0FC495E8CD
:101FA000030084E80300FFF7E5FA0A4B28B1187034
:101FB00002B0BDE87040FFF71DBB1E70F8E702B02D
:101FC00070BD00BFD8040020AD930200AC03002018
:101FD00004070020490400202DE9F743684C6949B3
:101FE000694820F063FB627A6849674820F05EFB2D
:101FF0000022637A04F119019046934204DD11F83E
:10200000010B01328044F8E7E77AB8FBF3F85FFA96
:1020100088F837B1A77B642217FB02F7B7FBF3F709
:10202000FFB2227B0AB9657B3DB1A57BE27B2A44E6
:1020300064255543B5FBF3F5EDB255495248DFF839
:10204000A491544E424620F031FB237CA27B52499E
:1020500000934D48E37B20F029FBE27A4F494A4840
:10206000002A14BF4A46324620F020FB227B4C490E
:102070004548002A14BF4A46324620F017FB627BCF
:1020800048494148002A14BF4A46324620F00EFB18
:1020900045493D483A4620F009FB44493A482A461A
:1020A00020F004FBA26D4249374820F0FFFA94F873
:1020B0005C2040493448002A14BF4A46324620F08A
:1020C000F5FA627B237B002A4AD1002B51D13A4991
:1020D0002D4820F0EBFA39492B4820F0E7FA38492F
:1020E000384E294820F0E2FA637A736164237374EE
:1020F000B57386F80D80F773FFF772FC3046042540
:1021000000F8015B30490C2225F07BFF2846FFF7E1
:1021100017FF0325C82600231946FF220120009639
:10212000FEF7A8FA0023FF22194602200096FEF7C8
:10213000A1FAC82020F0E7FEFEF790FAC82020F0B0
:10214000E2FE013DE7D121490F4820F0AFFA2049D6
:102150000D4820F0ABFA2572257603B0BDE8F08378
:102160003BB1E37A2BB11B49074820F09FFA1A498B
:10217000B6E71A49044820F099FA1949B0E700BFB8
:10218000C0020020B49302001C390020E693020034
:1021900011940200398702003B9402006694020009
:1021A00087940200A7940200C7940200EC940200F6
:1021B0000F95020038950200629502008F9502008B
:1021C000D7950200D8040020129702001B97020046
:1021D000519702002A960200599602009F9602002B
:1021E000CE96020035870200072896BF514B524B0E
:1021F00053F820302DE9F34107291546DFF84881CF
:1022000096BF4C4A4C4A52F821200E4698F80810C6
:102210000746CDE90021494849492A4620F046FAB7
:1022200098F808304446E3B947EA0601E8B2FFF7F8
:1022300055FC98F8183068B1013388F81830FFF76A
:1022400063FB98F81830022B08D902B0BDE8F041C2
:10225000FFF780BB13B1013B88F8183002B0BDE82E
:10226000F08198F80930132BF8D8FF2D04EB030206
:102270002946A8BFFF21632D51764CD898F80E202F
:10228000013288F80E20A27A47EA060848EA0202DC
:10229000A27207F00702072A03D006F00702072AF6
:1022A00001D10122E27207F00302032A03D006F0F3
:1022B0000302032A01D10122227307F00502052A35
:1022C00003D006F00502052A01D10122627307B18D
:1022D00036B9012284F85C20A26DAA4238BFA565F8
:1022E00001336372FFF710FBB8F1070F96BF114B74
:1022F000114B53F82830627A12491048CDE9005347
:10230000142320F0D3F9637A132BA7D902B0BDE8C8
:10231000F041FFF761BEC72D95BF98F80F2098F8E0
:1023200010200132013294BF88F80F2088F8102065
:10233000A9E700BFD4A90200FE8602001C390020D4
:1023400083970200BD970200C0020020024B5B6928
:102350000BB1FFF749BF7047C002002073B51E469E
:1023600003784C2B0C46154618D1072996BF134B02
:10237000134A53F8212013490096072D96BF0F4B9F
:102380000F4B53F82530104820F090F9324629467B
:10239000204602B0BDE87040FFF7D8BF072996BFBE
:1023A000064B074A53F821200096072D96BF034B92
:1023B000034B53F825300549E5E700BFD4A90200D7
:1023C000FE860200F89702001C3900200B980200DC
:1023D0002DE9F04F9D4E9E4D002389B0337020F0C3
:1023E00083FD2C688346B04604B1041B994A9A4E7B
:1023F00010783178994FDFF8C8A23B78884291462F
:1024000003D19AF800209A4222D0954A1278029479
:10241000072A96BF9348944A50F82220072B96BF6C
:102420009048914B50F82330072996BF8D488E492C
:1024300050F821108D480078CDE900108C498D4866
:1024400020F034F9337889F800303B788AF800308E
:1024500089483B780278317802F0FD0EBEF1010F19
:10246000814640F0C580DFF8F8A19AF8000041EA03
:10247000030C40EA0C0C1CF0020F00F092817F4D1F
:1024800006952C780CB3072896BF764C764854F8FE
:102490002000072B96BF734C734B54F82330072949
:1024A00096BF704C704954F82110CDE90031744941
:1024B0000346704820F0FAF8724B00201870724BF7
:1024C00088F80000187000245DE020F00DFD6F49D1
:1024D00007910B6899F80020DFF890B1C31A0593B3
:1024E0003B78072B96BF5F495F4B51F8233031781B
:1024F0000729054696BF5B485B4950F821109AF8BA
:102500000000072896BFDFF85CC157485CF8200040
:10251000CDE900105E49574820F0C8F899F800301E
:1025200003F0FD03012B32D19BF80020DAB9059BA3
:10253000B3F57A7F33D3574B01221A70564B8BF881
:1025400000201A604F4B88F800201A70C821002222
:10255000FF20FEF7E5F85149464820F0A7F8069A13
:10256000012313700FE04E4A1278A2B120F0BCFC98
:102570004C4A1268801AC72809D899F800204A499D
:102580003C4820F093F8204609B0BDE8F08F9BF856
:102590000020002ACBD0059BB3F57A7FDFD2079BC2
:1025A00042491A68AA1A334820F080F89AF80020A5
:1025B000072A40F2F2802C4A39789BF8003007292C
:1025C00096BF2848284950F821103078072896BF30
:1025D000244D254855F82000CDE900030B46254839
:1025E000334920F063F8334B012283F85D20B6E7CE
:1025F000022A02D0042A40F0DB80DFF864A09AF8B7
:1026000000C041EA03004CEA0000400740F1F080BE
:10261000294806900478002C54D0BCF1070F96BFCF
:102620001048114850F82C00072B96BF0D4C0E4B4C
:1026300054F82330072996BF0A4C0B4954F821104F
:10264000CDE900311D49034633E700BF870600206E
:102650004C0500201D00002000050020480500203A
:1026600088060020D4A90200FE860200860600200B
:10267000329802001C39002020000020C6060020ED
:102680006D980200A10300208F0300205005002058
:10269000C998020044040020040500203A99020071
:1026A000A2030020C4030020DC980200E898020086
:1026B0007D990200C002002097070020C099020007
:1026C0001C00002020F010FC7A4907910B6899F853
:1026D0000020DFF838B2C31A05933B78072B96BF6A
:1026E0007549764B51F8233031780729054696BF56
:1026F0007148724950F821109AF80000072896BFD7
:10270000DFF8B4C16D485CF82000CDE900106C49D9
:102710006C481FF0CBFF99F80020022A0AD0042A47
:1027200008D09BF80020BAB9059BB3F57A7FBFF4B7
:1027300016AF15E09BF80020002AF5D0624A127807
:1027400052B120F0D1FB614A1268801AC728E8D83C
:1027500099F800205E4913E7059BB3F57A7F04D210
:10276000079B5C491A68AA1A1DE700258BF80050E0
:1027700020F0BAFB584B1866584B1D70584B02227C
:102780001A60584A01231370FF221146284688F820
:102790000030FDF7C5FF5449DEE6474951F82220D5
:1027A0000AE7C80719D5514A042982F800E016D073
:1027B000994231D100292FD0072996BF3E4B3F4A7D
:1027C00053F821203F48072996BF3B4B3B4B53F81A
:1027D000213047491FF06AFF75E6042903D1434AB7
:1027E00000201070E4E70029E2D1002BF7D1DFE7E9
:1027F000022A01D0042ADBD1CA0706D53D4A0120AE
:1028000002291070D4D13B4AEAE70229FBD0002903
:10281000CED1002BF7D1CBE7012C1CD12A68D2B145
:1028200049B9002B40F06685334905932246254877
:102830001FF03CFF47E6072B26D81F4A52F82330EB
:10284000072923D81C4A52F8212000922B491D4801
:1028500001221FF02BFF3378002B3FF434AE97F8A2
:1028600000A0BAF1000F04D1254A12789A423FF431
:102870002AAE072B40F0088199F8002002F0FD03F2
:10288000012B05D11F49D2E70C4BD9E70B4ADCE7F6
:10289000BAF1070F3FF417AE631E012B00F2F4806C
:1028A0002B68002B00F0F080BAF1000F30D11649F0
:1028B0002246BCE730050020D4A90200FE860200B3
:1028C0001E9A02001C390020A2030020C40300202D
:1028D000319A02003D9A0200C00200204404002008
:1028E00004050020A10300208D9A0200C6060020E6
:1028F000D29A020097070020FB9A0200389B020040
:1029000049050020869B0200CC9B02008606002021
:10291000BAF1070F96BF8F4B8F4B53F82A308F4970
:102920008F4822461FF0C2FE99F8003003F0FD03E5
:10293000012B40F0A9803B781A1F032A02D9012BF2
:102940003FF6C1ADD5F800A0BAF1000F04D020F0D9
:10295000CBFA2A68A0EB020A99F80040814B824921
:1029600093F800E0814DDFF844C28148814ADFF8E6
:1029700040B2DFF84092032C55D0BEF1000F55D085
:10298000032C0CBF4FF0010E4FF0000E83F800E057
:1029900012788CF800E00CBF0123022303600123AE
:1029A0000B7088F800300AB1734A1370032C734A15
:1029B0004FF0070318BFFF21137019BF00200A460C
:1029C000C821FF2008BF0022FDF7AAFE327839781F
:1029D0006B4E6C485346032C08BF3046FFF7BEFCD5
:1029E0009BF800302A7801338BF8003099F80030DA
:1029F000013389F8003064210923002A42D0624A59
:102A00001078002413FB00130A21B3FBF1F31370B9
:102A10002C705E4A13780133137020F065FA5C4B1A
:102A20001C600124AFE5BEF1000FA9D0032C14BF38
:102A30004FF0010E4FF0000E83F800E012788CF892
:102A400000E00CBF02230123036001230B7088F810
:102A500000300AB1484A1370032C484A4FF007036C
:102A600008BFFF21137007BF00200A46C821FF20BE
:102A700018BF0022FDF754FE32783978414E4048A5
:102A80005346A8E7434ABBE73378072B3FF41BAD17
:102A900039788B4205D021B13D4A106808B9C2F897
:102AA00000B03D4A1078984232D03C481370C0F8CC
:102AB00000B03B4A05921078002838D0394A127885
:102AC000002A34D0384A1278A24230D900297FF443
:102AD000FAAC99F80030012B40F04882FDF772FF04
:102AE00020B1204A1478002C40F0BF80FDF76AFF27
:102AF000002840F0ED80FEF73FF80446002840F043
:102B00004B81FEF739F8002840F0C2810024FDE037
:102B1000042BCED0022BCCD92048026847F2305C7F
:102B2000ABEB02026245C4D9C0F800B0CBE4072980
:102B3000CFD199F80020D41E012AE4B200F04883D6
:102B4000032A79D1012B37D1064B1B78002BC0D03B
:102B500046E300BFD4A90200FE860200029C0200E8
:102B60001C39002086060020A1030020A2030020BB
:102B700004050020140500204C0400202300002040
:102B8000209802001E98020095030020A303002055
:102B9000EC030020A4030020F4030020F80300202D
:102BA000490400201F0000201E00002044040020D3
:102BB000A0030020C0030020042B8AD19A4A012CD4
:102BC0001378924634D9002B83D0D5F80090B9F110
:102BD000000F04D020F088F92A68A0EB0209934A7C
:102BE000012C8CBF002301231370022C8AF80030C3
:102BF0008F4B34BF012202221A608E4A01231370C8
:102C00008D4A88F8003012780AB18C4A1370012C72
:102C100083BFFF210A460020C8219CBFFF2000225D
:102C2000FDF77EFD864D3278397886484B4609E3BC
:102C3000002B7FF44EAFC8E7022A00F02383042A5A
:102C40007FF447AF012B08D0022B7FF442AF764BC5
:102C50001B78002B7FF43DAF5AE3734B1B78002B9E
:102C60003FF437AF15E3784A01E32B6823B120F036
:102C70003BF929686C4A431A4FF0000A069382F820
:102C800000A020F031F9714A106020F02DF9704A4F
:102C90001066664A82F800A0654A02201060FDF7BF
:102CA000A3FB644901220A7088F80020FF22114624
:102CB0005046FDF735FD674A82F800A020F014F970
:102CC000654A069B82F800A0397832785D4899E021
:102CD000554B1C789A46002C7FF40DAF3B78052BA2
:102CE00001D0D90744D53278042A41D1072B96BFA9
:102CF0005A4A5B4A52F823205A495B4B5B481FF003
:102D0000D5FC4A4A00238AF800301370584A1368E9
:102D1000ABEB0303C82B7FF636AC99F80030C2F852
:102D200000B003F0FD03012B00F012822868002898
:102D30003FF429AC059B1B78002B3FF424ACABEB94
:102D4000000BBBF1320F7FF61EAC4A4B1B785B4584
:102D50007FF619AC3378002B3FF415AC3B78002B91
:102D60003FF411AC98F80030002B7FF40CAC14E267
:102D7000072B96BF394A3A4A52F8232033783B480A
:102D8000072B96BF3549364B51F82330012100916E
:102D900039491FF08BFCB9E7234A117800297FF4E9
:102DA000B0AE2B6823B120F09FF829681E4A431A61
:102DB0004FF0010A069382F800A020F095F82F4A00
:102DC00010601A4A82F800A0194A5046C2F800A0C2
:102DD000FDF70AFB174A88F800A082F800A0C82176
:102DE0000022FF20FDF79CFC1A4A4FF0000A82F8EF
:102DF00000A020F079F8184A069B82F800A03978E4
:102E000032780F48FFF7AAFA1D4A1378013313707E
:102E10001C4A1378013313701B4A13780133137063
:102E20001A4BC3F800A071E7860600204404002076
:102E300004050020A1030020140500204C040020FC
:102E40002D9802002B980200A403002050050020BA
:102E5000C0020020C6060020A2030020D4A9020060
:102E6000FE8602004E9C02004A9C02001C39002093
:102E7000F00300201E000020C89C02003005002046
:102E8000A0030020C0030020A3030020EC030020C7
:102E90009C4B1B78002B3FF439AE3B789A4C052BAA
:102EA00001D05A0752D53278012A4FD1217801F04A
:102EB0000502042A12D1072B96BF944A944A52F86D
:102EC00023209448072996BF904B914B53F821300B
:102ED00000939149914B1FF0E9FB17E6072B96BF32
:102EE0008A4A8B4A52F82320012300938B4B8C494A
:102EF00088481FF0DBFB2378072B96BF834A844A60
:102F000052F823203B78072B96BF8049804B51F81D
:102F100023303178072996BF7C487D4850F821003E
:102F2000804909780729CCB296BF7849784951F889
:102F300024107D4C247803947C4C24780090CDE9B7
:102F4000011474487A491FF0B1FBDFE5072B96BFE7
:102F50006E4A6F4A52F823203378072B96BF6B498D
:102F60006B4B51F8233001210091C0E7032B35D181
:102F7000FDF728FD044620B1624A117800293FF48C
:102F800010AFFDF7F9FD00283FF4C0AD5D4A14789D
:102F9000002C3FF4BBAD2B6823B11FF0A5FF2968BF
:102FA000584A431A4FF0000A069382F800A01FF017
:102FB0009BFF604A1066604A82F800A05F4A0220C8
:102FC0001060FDF711FA5E4901220A7088F80020AE
:102FD000FF2211465046FDF7A3FB6FE6022B5FD19F
:102FE000FDF74AFE10B1474A14788CBBFDF73CFF51
:102FF000044600283FF48AAD424A117800297FF444
:1030000085AD2B6823B11FF06FFF29683D4A431A35
:103010004FF0010A069382F800A01FF065FF494AAD
:103020001060454A82F800A0444A5046C2F800A009
:10303000FDF7DAF9424A88F800A082F800A0C8211A
:103040000022FF20FDF76CFB4FF0000A3E4ACEE65F
:103050002B6823B11FF048FF29682A4A431A4FF012
:10306000000A069382F800A01FF03EFF374A106066
:103070001FF03AFF2F4A10662F4A82F800A02F4A0D
:1030800002201060FDF7B0F92D4901220A7088F87E
:103090000020FF2211465046FDF742FB2A4A0BE66C
:1030A000042B7FF433ADFDF7E7FD044610B1154A5C
:1030B000117811B1FDF7D8FE65E72B6823B11FF039
:1030C00013FF29680F4A431A4FF0010A82F800A043
:1030D000194A069382F800A0184A5046C2F800A088
:1030E000FDF782F9164A88F800A082F800A0C821EE
:1030F0000022FF20FDF714FB4FF0000A1FF0F4FE42
:1031000079E600BF8606002088060020D4A90200C8
:10311000FE8602001C3900200C9D0200089D020062
:10312000819D02009607002022000020210000203F
:10313000BD9D0200C00200204404002004050020C0
:10314000A103002030050020970700205005002033
:10315000864B93F800909A46B9F1000F0AD0FDF71C
:1031600031FC814618B198F8009089F001099AF86D
:1031700000303BB9FDF700FD20B198F80030002B7E
:1031800008BF81463378072B15D13B78072B12D027
:1031900098F800307BB92B6843B9754A137801332E
:1031A0001370744B1B7853B9734A09E0ABEB0303FC
:1031B000B3F5FA7FF1D3B9F1000FEED1B6E56F4A5E
:1031C00013780A2103EBC303B3FBF1F3FFF7C9B98B
:1031D000012B7FF4F1AC654B1B78002B7FF479ACAD
:1031E000D5F80090B9F1000F04D01FF07DFE2A68D9
:1031F000A0EB0209012C5D4A94BF00230123137048
:103200005F4A022C13705F4B34BF022201221A6006
:103210005D4A012313705D4A88F8003012780AB1C4
:103220005B4A1370012C99BFFF210A46C821FF2079
:103230008CBF00220020FDF773FA564D32783978A2
:1032400055484B46012C98BF2846FFF787F8534A4C
:103250004848137801331370454A137801331370CB
:10326000027809236421002A3FF4FDAC434A147814
:1032700013FB041300240A21B3FBF1F31370047051
:10328000FFF7C7BB012B3BD1384B1B78002B7FF4DA
:1032900020AC2C681CB11FF027FE2C68041B99F889
:1032A0000030324A022B0CBF012300231370344A32
:1032B0001370344B0CBF012202221A60324A4FF0C5
:1032C000010318BFFF21137009BFC8210A46FF2060
:1032D000002218BF002088F80030FDF721FA2346AD
:1032E00099F80050327839782B482A4C022D18BFB3
:1032F0002046AAE7072B7FF6A0AA294BFFF7A2BA20
:10330000022B7FF4E6AB194B1B78002B3FF4E1ABAB
:103310002C681CB11FF0E8FD2C68041B99F80030E4
:103320001249181F424242410A701549022B154B9F
:103330000A700CBF022201221A60134A4FF00103E7
:1033400008BFFF21137017BFC8210A46FF200022C3
:1033500008BF002088F80030FDF7E2F9234699F80D
:103360000050327839780B480B4CBFE786060020B6
:10337000C0030020A2030020A40300209503002026
:103380004404002004050020A103002014050020AF
:103390004C0400202B9802002D980200A00300206E
:1033A000FE8602002DE9F04FB04DB14B6A6E9A4295
:1033B0001CBF6B660023AA6E18BF85F85D30AD4B4D
:1033C0009A421CBFAB6600236A6F1CBF2B60C5E925
:1033D0001B33A94B9A421EBF6B67002385F87830D8
:1033E000EA6FA64B9A4289B007D0EB67A449A5487B
:1033F0000023A5F880301FF059F9A34BD5F884209D
:103400009A4208D0C5F88430A0499E48002385F828
:1034100088301FF04BF99E4BD5F88C209A420FD084
:10342000C5F88C304FF0A043D3F81035DB43DB0FE9
:1034300085F8903085F891300023C5F894302B66DC
:10344000012385F8983095F87830DFF8A0A2914CE8
:10345000002B54D190498B481FF028F98F481FF05A
:10346000A3F88F4A8D48012302211FF0D3F88D4A1B
:103470008A48012304211FF0CDF8012395F99920F2
:1034800085F87830884995F99A308AF800202360C9
:103490007C48864F1FF00AF94FF0A0428448D2F8CA
:1034A0001025844903780B7012F0005F82F080547D
:1034B0008946C4F3007414BF0021022112F0100FDA
:1034C00044EA010414BF0021042144EA01027A49BC
:1034D00006900020387008709AF8000000F0FD0691
:1034E000012E1446754E27D15BB333789B070FD559
:1034F0003378DBB2DB0712D401233B700FE095F980
:10350000992095F99A306E498AF800202360BFE728
:1035100096F800C03378BCF1030FDBB2EAD0022882
:103520000FD133785F0740F1E7803378DBB2D807FB
:103530005CBF01230B7004E0022840F0D980002B0F
:10354000EFD162B91FF0D0FCD5E91B130B43024643
:1035500005D1C5E91B005B494A481FF0A7F832783E
:1035600059495A4BD0B21C70984651F82430584CE7
:103570000594072A98BF51F82020207888BF554A23
:10358000554C072898BF51F82010544888BF51491E
:10359000007803905248007802909AF80000CDE934
:1035A0000010504937481FF081F83378CBB1337899
:1035B000072B16D03378062B13D03378012B00F06D
:1035C000A2803378022B00F09E803378042B00F029
:1035D0009A803378052B00F096803378032B00F027
:1035E0009280059B1B78237021783F4F98F800301C
:1035F0003970072906D1072B04D0052B40F0A6808F
:10360000012222709AF80020022A01D0042A0BD14C
:10361000002B40F0C980317831B13178022940F077
:10362000A48002212170397002F0FD01012940F0CF
:103630003F81002B40F00C81317831B13178042981
:1036400040F0E780042121703970052B217840F08B
:103650002F81072902D0002940F02A81397801F012
:103660000501042940F05681217000E1C0020020CC
:10367000EEEEFFC00DF0EDFEFF0042EE10D7EA0BBC
:10368000F59D02001C39002057DE70AB209E020021
:10369000C0A0AC0CC0060020439E0200AC0300207A
:1036A000590300205A030020759E02009407002051
:1036B000440400208606002095070020960700207D
:1036C000A99E0200EA9E0200D4A902000005002083
:1036D00023000020FE860200480500202200002072
:1036E000210000201C9F02008806002020000020EE
:1036F00004283FF424AF24E7307833780528DBB280
:103700007FF41FAF13E7059B32781B789A423FF492
:103710006AAFCBB19A1F012A16D93278012A05D196
:1037200003F0FD02012A01D0052B0DD13278042AC5
:1037300002D11A1F012A07D83278022A7FF453AF28
:103740009A1E012A7FF64FAF33784CE7042B01D144
:10375000052256E7032B3FF453AF022B01D103227E
:103760004FE7DA073FF54CAF4CE73178012901D13B
:10377000012157E730780328C1B208D19F4800687B
:1037800002283FF44EAF01287FF44CAFF0E73178C8
:10379000052904D1994909680229E9D141E731781D
:1037A00007297FF441AFF5E7012B11D0022B20D080
:1037B000032B7FF439AF2178072902D000297FF449
:1037C00033AF397801F0030102291ED121702BE7B4
:1037D000207800F0FD0001283FF426AF01F0FD0045
:1037E000012823703FF420AF05293FF41DAF3B7043
:1037F0001AE72078023801287FF616AF881E0128C4
:1038000023707FF611AF0629EFE7012918BF0321C6
:10381000DCE73178012901D1012114E7307805284E
:10382000C1B208D17548006803283FF40BAF0128E6
:103830007FF409AFF0E73178032904D16F490968B3
:103840000329E9D1FEE6317807297FF4FEAEF5E7DA
:10385000012B21781FD0042B7FF4F7AE0439012906
:1038600026D9397823700439022921D93B70022ADC
:1038700007D0012B22D0042B03D13B78043B022B31
:1038800007D85E4B1B68012B1FD0022B4ED0032B99
:103890004ED104231AE001F0FB01012908D0397848
:1038A000237001F0FD00012802D0052900D03B70F3
:1038B000022A01D0042ADCD1012B2FD13B7803F05E
:1038C000FD02012ADDD0052BDBD001233B704C4BE0
:1038D00022781A704B4B01221A704B4A4FF0000BA2
:1038E00082F800B01FF000FB484A464B1060327867
:1038F0000793072A40F0B28098F80060072E19D18C
:103900009AF80020022A40F0F680414941481EF012
:10391000CDFEA8E0012918BF0521A5E6022BB0D1F4
:103920003B789A1E012AACD9062BAAD00223CDE7F8
:103930002378CBE72378072B00F09580321F514284
:10394000A6F1020051419AF800204342434102F09F
:10395000FD00012809D1022E10D12F4B2F492D48EF
:103960001EF0A4FE0023002109E0022A01D0042A4F
:1039700005D1042EF7D12A4B2A49F0E75B469AF885
:1039800000B00BF0FD02012A5AD191B3BBF1010F37
:1039900014BF4FF0000B4FF0010B99F800305B455E
:1039A0005CD0214BDFF894A0204F214EBBF1000FDB
:1039B00000F08080012206991A60337889F800208F
:1039C0000A708AF800203A700BB11A4B1A70059AE7
:1039D00007231370C8210022FF20FCF7A1FE98F8EE
:1039E000002021781448002309B0BDE8F04FFEF70D
:1039F000B5BC012E5CD1BBF1030FC9E74005002027
:103A000049050020A2030020A3030020C4030020D6
:103A1000FF9F02001C3900203A9F02003E9F0200D7
:103A20004A9C0200909F02000405002087060020A7
:103A3000140500204C040020E49F0200A103002094
:103A400083B3BBF1040F14BF4FF0000B4FF0010B19
:103A50000029A2D1012EA0D0002B9ED198F80030D1
:103A6000072B3FF44DAF237898F8002093420AD0FB
:103A70004BB142B1072B08BF3B70FEF7A9FC23787E
:103A8000072B18BF3B70574B1B7813B9564B1B784D
:103A90002BB1564B1B7813B1554B01221A7009B04C
:103AA000BDE8F08F012E40F09780BBF1020FCAE70E
:103AB0008B46D1E789F800B01FF016FA069B2866FE
:103AC00083F800B04B4B02221A60327801238AF847
:103AD00000303B700AB1464A1370059A07231370F1
:103AE000FF2211460020FCF71BFE98F800202178E9
:103AF0004148002378E7042A3FF407AF2378072BD7
:103B0000B1D099F80010DFF804B13A4A354BDFF82C
:103B100000A13A4F3A4E002942D0002189F8001006
:103B20001FF0E2F9069B334A2866002119702D4BDD
:103B30000221116001221A702B4B1A702B4B1B783B
:103B40000BB12B4B1A70059A07231370FF221146F5
:103B50000020FCF7E5FD98F8002021782948002393
:103B6000FEF7FCFB9AF80030317801338AF8003018
:103B70003B7801333B706422092313FB01230A22A3
:103B8000B3FBF2F3079A3370002313709BF80030F5
:103B900001338BF8003009B0BDE8F04F1FF0A4B935
:103BA00001211970104B06981970104B89F80010FC
:103BB0001B78017011600BB10D4B1970059A07232A
:103BC0001370C8210022FF20FCF7AAFD98F80020FE
:103BD00021780D480023C3E700293FF43FAF9B46FF
:103BE000DBE600BFA10300208706002014050020AB
:103BF0004C04002004050020E29F0200C0030020C6
:103C0000950300203FA0020041A00200A303002072
:103C1000A00300202DE9F3471FF066F9B14C0646DA
:103C2000B14823780778BB42A24653D0002F51D029
:103C3000AE490D68751BFE2D10D8DFF81CC3DFF8E8
:103C40001CE39CF800200EF8025001324FF0640E85
:103C5000B2FBFEF50EFB15228CF800200E60A44985
:103C60000A78002A40F0D781A3B3A24D2F70012516
:103C70000D70A1490A70032B02D05A1F022A01D8E5
:103C80009D4A13709B4A177827B31BB3BB4221D0C0
:103C9000994ADFF880C2994992F800809CF8002088
:103CA00000258E46AA4240F3098191F80090B9455B
:103CB00040F0018191F80290C14540F0FC8091F8FC
:103CC0000190994540F0F7800C2202FB05E56A68F7
:103CD00001326A608A4F03703A78A2B1032B02D096
:103CE0005A1F012A06D887490A680132C82A88BFA4
:103CF00052080A60072B06D183490A680132C82A94
:103D000088BF52080A60814D95F800C0BCF1000FD1
:103D10006CD07F4A1278002A7E4A127814BF4FF086
:103D2000010E4FF0020E002A00F02B817348511E45
:103D300002EB420200EB8202884612F80B9C994586
:103D400040F0108112F8049CB9F1000F40F00A8194
:103D50000C2303FB080301221A726F4B1A782AB155
:103D600096451FBF6D490A6801320A60604A83F8B0
:103D700000E0002313705F4A13705F4A1370BCF1B8
:103D8000000F07D0664B1B78032B00D013B903201C
:103D9000FEF794F83B784BB36248634903680A68BE
:103DA00001330132642B0A6000F2EE8003605F4F42
:103DB0005F4A3B68F31A934218D90068132815D953
:103DC0000A6864235A43B2FBF0F2D2B2592A0DD9E1
:103DD000524A12685343B3FBF0F3DBB24F2B05D9C1
:103DE000FDF78CF90020FEF7ABF83E60514B1B78D5
:103DF000002B5DD050499AF800300A78934214D0D5
:103E00009AB14E480468341BFE2C0DD84C4FDFF895
:103E100050C13A780CF8024001324FF0320CB2FB3C
:103E2000FCF40CFB14223A700660032B02D05A1FDC
:103E3000012A03D84348027801320270072B01BFE0
:103E400041480278013202702A784048002A00F086
:103E5000BD803F4D02682C68013201340E2A2C606F
:103E6000026040F2B3803B4A1278002A40F0AE80F4
:103E70000224C825FF231946002201200095FCF7E3
:103E8000F9FBFF230022194602200095FCF7F2FB04
:103E9000C8201FF038F8FCF7E1FBC8201FF033F80A
:103EA000012C40F09180FDF73DFA2A4B01221A7057
:103EB00002B0BDE8F08701350C31F3E6132A3FF676
:103EC00009AF0C2555430EEB05010EF805700125D1
:103ED0004D600132002581F802804B700D728CF824
:103EE0000020F7E600050020D0030020D4030020C6
:103EF000CD030020CF030020CC0300205405002078
:103F00005404002050040020C40400208706002030
:103F1000860600208406002034050020CC04002002
:103F2000D8040020C80400205804002028050020E0
:103F3000E093040044060020D8030020C8030020BA
:103F400084070020080500208C070020900700202F
:103F50007C070020CE0300205C0400205D040020CC
:103F6000CF06002008F1FF38B8F1FF3FA2F10C02A4
:103F70007FF4E3AE0C2303FB01031A7A002A3FF41B
:103F8000EAAE4FF0000CE8E6DFF8A4C06423652732
:103F90005A43B2FBF7F20A60DCF8002003605A4390
:103FA000B2FBF7F2CCF80020DFF888C0DCF8002084
:103FB0005A43B2FBF7F2CCF800201A4A1468634364
:103FC000B3FBF7F31360F2E6012453E70268312AEA
:103FD0001FD9154A1278E2B90224C825FF231946D1
:103FE000002201200095FCF745FBFF230022194623
:103FF00002200095FCF73EFBC8201EF084FFFCF772
:104000002DFBC8201EF07FFF012C3FF44CAF012494
:10401000E4E70B704CE7054A1278002A7FF432AED1
:1040200029E600BFC4040020CE030020CC030020FA
:10403000CC0400205004002073B5044616460D46FB
:1040400019B912B10D4822F0CAFD731B0F2B019351
:1040500007D9002201A9204622F0CCFD019B206057
:10406000A36032462946206822F0FCFD019B2268AD
:1040700063600021D15402B070BD00BF57A00200A0
:1040800038B500F10803044603600D4659B10846EF
:1040900023F0AFFF2A1820464FF000032946FFF710
:1040A000CBFF204638BD4FF0FF32F4E72DE9F04753
:1040B000AEB01EF019FFB74DB749B84E0246B8482A
:1040C0001EF0F4FA2B781BB9B64B93F99A30336093
:1040D000B54BDFF840831B78002B00F00A82722377
:1040E000C8F80030B14B1F78012F26D9B04B93F898
:1040F00000A00AF1FF33012B1FD8AE4B1B780AEB4F
:104100008A046400002B40F0068207F1FF39C9F3EE
:104110004709B9F1090F28BF4FF009094C44C8F805
:1041200000401EF0E1FEA449CDF80090CDE9014029
:104130003B469B4852461EF0B9FAA04B1B78002B19
:1041400040F003820A22D8F800109D4F05A81EF007
:1041500082FD05A908A81EF062FD9A4908A81EF074
:10416000AFFD994B044619680A220BA81EF073FD97
:104170000BA920461EF098FD0A22044631680EA8BD
:104180001EF069FD0EA920461EF08EFD8D491EF021
:1041900097FD0A220446B7F9061011A81EF05BFD30
:1041A00011A920461EF080FD88491EF089FD0A22D3
:1041B000044697F90E1016A81EF04DFD16A92046CC
:1041C0001EF072FD7F491EF07BFD764B0A22B3F88C
:1041D000801004461CA81EF03EFD1CA920461EF0BF
:1041E00063FD78491EF06CFD0A223168044622A85E
:1041F0001EF031FD22A920461EF056FD01467448EE
:104200001EF0FEFC22A81EF0A3FC1CA81EF0A0FCC1
:1042100016A81EF09DFC11A81EF09AFC0EA81EF018
:1042200097FC0BA81EF094FC08A81EF091FC05A8B2
:10423000674F684C1EF08CFC3A68674958481EF07E
:1042400035FA1EF051FE2368C01A4EF660239842DC
:10425000624B01D81A78FAB11B7893B16049614A70
:1042600009781278029160494D48097801916421DA
:1042700012FB01F1B1FBF3F1C9B200915B491EF0F1
:1042800015FA1EF031FE2368C01A4EF660239842DC
:1042900002D91EF029FE2060554922A8FFF7F0FE42
:1042A00022A802F073F922A822F0C6FC3368013B71
:1042B000022B84BF02233360414BB3F906203368DD
:1042C00040F6A5618A4240F37781032B40F0788164
:1042D0000021082002F008F902F082F8454E044659
:1042E0003060042021F064FC434B0360014601224E
:1042F000204602F05DFF3068404902F0DAFF2B787B
:10430000064663B34FF400733D49DFF80C811E226B
:1043100003F0A1FB2B78C8F800000446FBB1042091
:1043200021F046FC374B03600146204601F0CCFFEC
:104330002B78A3B1344BD8F800401B683349009365
:104340001022334B22A8FDF747FCBDF88C202299A0
:1043500004F11C0001F02BFF22A822F06DFC304676
:1043600003F0DAF90322114622A802F035FB0121FD
:1043700022A802F056FB002122A802F04DFB1F49A3
:1043800016A8FFF77DFE16A911A803F07DFB39687A
:104390001CA843E01305002081A00200C0060020F5
:1043A0001C390020C0020020C50600204C06002059
:1043B0004D0600204A040020BDA00200C4060020D3
:1043C0001805002029A102002C00002025A10200D0
:1043D0006C060020FC0300202BA10200C00300207B
:1043E000A4030020A00300209503002039A10200AF
:1043F0006AA102008006002070A902006DA10200DF
:1044000072A10200A4A9020030000020E95A0200B3
:1044100077A10200040500207C060020FFF730FE93
:104420001CAA11A922A802F075FD1CA822F004FC08
:1044300016A822F001FC68491CA8FFF721FE1CA960
:1044400016A803F021FB00231420CDE911331393A8
:1044500021F0AEFB16AD00F11406119004460FCD0D
:104460000FC42B68236011A922A81396129602F09C
:104470005FFC119808B121F09FFB1CA822F0DCFB27
:1044800001F0CAFF554E564D30600446042021F01D
:104490008FFB544B036001460122204602F05CFA78
:1044A000012300242B70504B30681C7022AA214637
:1044B00002F092F9002800F08C80234621463068F3
:1044C00047F2305202F0E8F9044620B9474948481B
:1044D0001EF0E2F82C701EF007FD464902464448E3
:1044E0001EF0E4F8229808B121F066FB2EB0BDE87A
:1044F000F087D8F80030013B012B3FF6F3AD3E4B7F
:104500003E49B3F880203A48013292B2A3F88020A5
:104510001EF0CCF8E6E5022F0DD10234C8F80040B9
:104520001EF0E2FC3649CDE900403B465246304899
:104530001EF0BCF801E6032F01D10334EEE73B1F68
:10454000092B94BF04346834E8E701230A224A2186
:1045500011A82B701EF07FFB11A916A81EF05FFB9F
:10456000284916A81EF0ACFB0A22044631681CA894
:104570001EF071FB1CA920461EF096FB21491EF07F
:104580009FFB214B0A22B3F90610044622A81EF015
:1045900062FB22A920461EF087FB01461B481EF045
:1045A0002FFB22A81EF0D4FA1CA81EF0D1FA16A8E0
:1045B0001EF0CEFA11A83BE640F647518A4205DDCF
:1045C000023B012B02D80021042083E6002108468B
:1045D00080E628707FE700BF6DA10200780600200A
:1045E00014050020C4A902004C0400207AA1020096
:1045F0001C39002094A10200C00200209CA00200EF
:10460000F5A0020029A10200180500206C06002078
:104610002DE9F74FA04BDFF8EC921B789F4CA04E92
:10462000DFF8E4A29F4D5A1E042A98BF89F8003093
:104630009D4B1B789BB39D4B93F80080B8F1000F06
:104640002DD14FF0A043D3F8107594F890306FEA55
:10465000070B4FEADB7B5B4521D01EF045FC94F84D
:10466000903084F89130002F84F890B0904FC4F8C7
:10467000940022DB02233B708E49012333708E4865
:10468000DFF888B2DFF888821EF010F88B4B1B78B9
:10469000CBB19BF80030B3B1002388F80030884BD1
:1046A0009AF800101B784FF0804200295CD0012B53
:1046B0004ED10B23C2F81C355EE0032381493B70C9
:1046C00086F80080DBE7012388F800303B787E4FD6
:1046D00032783B60022B4FF00A0300930CBFFF239C
:1046E00000238AF800204FF003000BBF1A461A4639
:1046F0000021FF21FBF7BEFFFDF764F8734A3B681A
:104700005371734B1B6801339360724B186850B13F
:10471000714F3B783BB1002102F0E2F800230A2000
:104720003B701EF0F0FBFFF7C1FC2B7853B16B4FD1
:104730006B493A7860481DF0B9FF6A4A00232B7034
:104740003B701360002388F800308BF80030A6E738
:10475000022B01D10C23ADE7032B01D10D23A9E7D7
:10476000042B09D10E23A5E7012BA3D0022BA1D046
:10477000032B9FD0042B9DD0327899F80030002A6B
:104780004DD0072B4FF0804294BF0B3311234FF0D5
:104790008041C2F82035544BD1F81C2553481A707B
:1047A000D1F82035037052480068032841D1D2B2B5
:1047B0009632C1F81C254F4A1268072A43D1DBB252
:1047C000A0334FF08042C2F820352B78002B5DD00B
:1047D000424A4FF080451278D5F8200551015E001D
:1047E00006F01E0601F06001314300F0010631437E
:1047F00041F08001C5F82015D5F820150191C0B20F
:1048000000903D492C481DF051FF3C492A480123A6
:1048100084F8983003B0BDE8F04F1DF047BF5A1E32
:10482000062A4FF08042B2D90BB90123AFE7072324
:10483000ADE7022802D1D2B26432BAE70128BAD178
:10484000D2B23232B5E7062A02D1DBB28C33B8E7F6
:10485000052A02D1DBB27833B3E7042A02D1DBB2F6
:104860006433AEE7032A02D1DBB25033A9E7022A50
:1048700002D1DBB23C33A4E7012A02D1DBB22833F8
:104880009FE7002AA1D1DBB214339AE71C490A48FA
:104890001DF00CFFB9E700BF00050020C00200209A
:1048A000910300204C060020050000200600002097
:1048B00007000020B4A102001C390020850600205A
:1048C00020000020C2A102000405002018050020DD
:1048D0002400002078060020140500204D0600204A
:1048E000CEA102005006002021000020220000205E
:1048F000800700203400002013A2020091A20200D1
:104900005DA202002300002044040020A103002037
:104910008F0300202DE9F041FBF778FF494B4A4E09
:104920001B78002B4ED03378002B39D0474C484FA2
:10493000484D002333702368012B02D1464B1B786E
:1049400033B33B7823BB454B1A78984612B9424B98
:104950001B78EBB1FBF7A4FD98F80010404B31B188
:10496000404A12781AB91A6801321A6004E01A68CB
:10497000002A24DD0029F7D12B68236001232B6056
:10498000FFF746FE384B18681EF0BDFA21F0A0FB79
:10499000364A002313702A68226001222A603B7085
:1049A00001233370324B00241C70324B1C60324B9D
:1049B00018681EF0A8FA314B1C70BDE8F081DBD1FD
:1049C0000122D2E7214D224F2B68224C012B03D12B
:1049D000214A1278002A32D03B7823BB1F4B1A7829
:1049E000984612B91C4B1B78EBB1FBF759FD98F8B0
:1049F00000101B4B31B11B4A12781AB91A680132E8
:104A00001A6004E01A68002A16DD0029F7D123682D
:104A10002B6001232360FFF7FBFD134B18681EF08A
:104A200072FA21F055FB23682B60012323600F4BA2
:104A300000221A700023B2E7E9D10122E0E72360E7
:104A4000F8E700BF93030020A806002040050020DF
:104A5000AA06002080070020BC060020A103002039
:104A6000340000200105002038000020110500203E
:104A7000AD060020D0040020A4060020A9060020D6
:104A800070B5FBF7C3FE3E4B3E4C1B783E4D002BF2
:104A900045D13E4E32781AB93D4B1B78002B3ED0A3
:104AA0003C4B1B7893B13C4B1B78042B1AD12368E9
:104AB000012B0BD1394A1268012A08BF02232B604F
:104AC000374B00221A704FF0FF332360FBF7E8FCEE
:104AD0003178344B89B1344A127872B91A6801328C
:104AE0001A600FE0022BF1D12368012BEED12B4A83
:104AF0001268022A08BF0323E1E71A68002A25DDAD
:104B00000029ECD12368012B1CBF02232360FFF78F
:104B10007FFD264B18681EF0F6F921F0D9FA2B68B4
:104B2000234E022B1FBF23682B600223236017BF75
:104B30001B4B236000221A701E4B1B784BB133783D
:104B400083B123682B60022323600BE0DAD10122BA
:104B5000C6E7194B1B782BB1184B186821F0B2FC33
:104B60000028EED0164B00241C7001233370154B27
:104B70001C60154B18681EF0C6F9144B1C7070BDF4
:104B8000AF0600208007002040050020A103002080
:104B9000BC0600208C03002020000020040500201B
:104BA00011050020340000200105002038000020FD
:104BB000AD0600209403002092030020080000208E
:104BC000A8060020D0040020A4060020AE06002085
:104BD00070B5FBF71BFE384B384C1B78384D002B5B
:104BE00043D1384E32781AB9374B1B78002B3CD062
:104BF000364B1B7893B1364B1B78032B1AD12368A5
:104C0000012B0BD1334A1268012A08BF03232B6002
:104C1000314B00221A704FF0FF332360FBF740FC4A
:104C200031782E4B79B12E4A127862B91A68013266
:104C30001A600DE0012BF1D12368012BEED1254A3A
:104C40001268022AE1E71A68002A32DD0029EED153
:104C50002368012B1CBF03232360FFF7D9FC214BE2
:104C600018681EF050F921F033FA2B68032B1FBF90
:104C700023682B600323236017BF174B2360002298
:104C80001A70194B1B7843B1184B186821F01AFCA5
:104C900018B923682B6003232360154B00241C7074
:104CA000144B1C60144B18681EF02DF9134B1C702C
:104CB00070BDCDD10122BBE7AC06002080070020EB
:104CC00040050020A1030020BC0600208C0300202A
:104CD00020000020040500201105002034000020E1
:104CE0000105002038000020920300200800002069
:104CF000A8060020D0040020A4060020AB06002057
:104D000008B5074B40F6D862DA80064A01231370D3
:104D1000054A1370FFF7CAF9044B00221A7008BD48
:104D200018050020C4060020100500204B040020B8
:104D30002DE9F04F85B01EF0D7F8C64AC64E13686D
:104D4000C31A322B7AD910601A2021F0BBFB00283D
:104D500074D1012333701EF0C7F880461EF0C4F8EA
:104D6000DFF8F8B2DFF818A3012700241A2021F099
:104D7000A9FB002877D11EF0B7F8A0EB08051EF0BC
:104D8000B3F841F287339D42814653D984B94FF439
:104D90009677009723462246FF210120FBF76AFC05
:104DA000009723462246FF210220FBF763FC0127E0
:104DB000A5F59C54083C40F2DC53B4FBF3F40134F9
:104DC000BC4214DD032C12DC4FF49677022C0097C2
:104DD0003AD1FF22114600230120FBF74BFCFF22B2
:104DE0000097002311462046FBF744FC2746A5F513
:104DF0009C45203D42F20F739D421AD89BF800401B
:104E0000C4B9DAF80030A9EB0303B3F5FA7F10D97F
:104E1000FF23C8251946224601200095FBF72AFCEE
:104E2000FF230095224619460220FBF723FCCAF80F
:104E30000090012432201EF066F897E73378002BAB
:104E400089D105B0BDE8F08FFF2332220021012077
:104E5000FBF710FC0097FF23322200210220FBF712
:104E600009FC0327C3E7002C00F09D801EF03CF8EE
:104E70007A4B1D783DB13846FDF762F8FCF752FADF
:104E800000233370DDE7A0EB0800A0F59C43203B36
:104E900041F2873293424DD8714C7248237883F0A7
:104EA000010323701DF080FB6E480123224606217A
:104EB0001DF07CFA40B96B481DF0FCFA69480123EB
:104EC000224606211DF072FA237896250324C3B1E9
:104ED00000231946FF2201200095FBF7CBFB00239E
:104EE000FF22194602200095FBF7C4FB96201EF016
:104EF0000AF8FBF7B3FB96201EF005F8013CE7D15A
:104F0000BEE700231A46FF2101200095FBF7B2FB04
:104F100000231A46FF2102200095FBF7ABFB9620E9
:104F20001DF0F1FFFBF79AFB96201DF0ECFF013C12
:104F3000E7D1A5E746F2A713984218D903246425C0
:104F4000FF231946002201200095FBF793FBFF2366
:104F50000022194602200095FBF78CFB64201DF00F
:104F6000D2FF013CECD1FCF799F8347069E73E4C74
:104F70003C4827601DF018FB224604213B48FCF703
:104F800060FE3B4B226883F89A204FF0FF33039377
:104F9000042303AA194633481DF03CFBC8201DF02A
:104FA000B2FF35704DE7334C2E48012322460221D3
:104FB0001DF030FB042319462B4A2A481DF02AFB1A
:104FC00028481DF0DFFA01201DF09DFF23782A4AB2
:104FD0000133DBB2052B237004BF01232370237838
:104FE00040F6A661012BD18029D14FF4FA730093CA
:104FF000FF231A4600210220FBF73CFB1A4D1D4AF5
:105000001A480221FCF731FE04212A461748FCF712
:1050100018FE174B227883F899200A202A6883F813
:105020009A201DF070FFFCF795FC144B00221A70BB
:10503000FFF7EEFAFFF764FEFCF7F2FB01E7022B45
:1050400020D14FF4FA730093FF231A460021012068
:10505000D2E700BF400400204B040020440600209B
:1050600054040020AC030020C0060020A803002048
:10507000C002002020000020180500204404002069
:105080003C040020032B06D14FF4FA730093C8228E
:105090000023FF21AFE7042BB0D14FF4FA73009344
:1050A000C8220023FF21D2E72DE9F04FB04C22782F
:1050B00087B0CAB9AF4DB04ED5F89C30B34205D0D9
:1050C000FBF7A6FFFEF76EF9C5F89C60012323707D
:1050D000FCF7E4F9FCF7AEFAA84B1B7823B1A84B18
:1050E0001B780BB1FCF786FA6423A64EDFF88482A6
:1050F0000393A44B1C78FBF79FFB1DF0F5FE337860
:105100000546002C00F0D283ABB9072C96BF9E4B0E
:105110009E4A53F824209E499E481DF0C7FAE20794
:1051200048BFC8F86C50A30748BFC8F8705067075D
:1051300001D5C8F870503378A34200F0C781DFF87A
:105140009092954D954FDFF88CB21DF0D5FE99F8F1
:1051500000200A21B2FBF1F301FB1323DBB2072C81
:105160003178E95447F8230096BF874B874953F8B5
:10517000241001328246874889F800201DF080FA09
:10518000874984481DF07CFA33788248072B96BF04
:105190007D4A7E4952F823101DF072FA81497D48FC
:1051A0001DF06EFA0A227B484FF47A71BAFBF1F1D6
:1051B0001DF0A7FA7C4977481DF062FA99F80020A3
:1051C000022A0FD89BF80040FDF702F99BF8003047
:1051D0005C4036E1D8F87000002840F08183C8F8C0
:1051E0000000A8E70A20D31EB3FBF0F100FB113347
:1051F000511EB1FBF0F400FB141457F8241057F8BB
:105200002370C91B694FB942DCD8023AB2FBF0F7F0
:1052100000FB1722EB5CAF5C654A2D5D127802F053
:10522000FD0001281DD143EA07002843800737D538
:10523000072B96BF5449554B51F82330072F96BF83
:105240005149524951F82710072D96BF4E484F48F3
:1052500050F82500CDE9001056494E481DF026FAB9
:10526000B0E7022A01D0042A1AD143EA07002843F2
:10527000440715D5072B96BF4349444B51F82330BB
:10528000072F96BF4049414951F82710072D96BF77
:105290003D483E4850F82500CDE900104649DCE77E
:1052A000042B4FF47A7AB1FBFAFA31D1002F40F097
:1052B0009380012D01D0E80784D59BF80040002C95
:1052C00082D13E4933483E4F1DF0DAF90A22514659
:1052D0003048DFF8F8A01DF014FA3A492D481DF0C7
:1052E000CFF99AF800203B78059205218AF8001042
:1052F00004930421397001213170FDF769F8059A92
:10530000049B8AF800203B70357089F8004098E0D3
:10531000012B61D1002F5FD1042D02D0690740F12C
:1053200039819BF80040002C3FF44EAF26491948C4
:10533000264F234C1DF0A4F90A22514615481DF0B2
:10534000E0F9204913481DF09BF905223B783A709B
:10535000012294F800A00493227004223270FDF719
:1053600037F8049B84F800A03B7035700024CCE72C
:1053700000040020C0020020EFBEADDE4604002085
:105380004904002000050020D4A90200FE86020086
:10539000BDA202001C3900203104002008040020B6
:1053A0003CA3020043A4020040A30200EF49020014
:1053B0002000002046A3020088A30200CAA3020026
:1053C00088060020D6A30200DBA3020048050020C7
:1053D0003B04002086060020042F9BF800407BD170
:1053E000002D7FF4EFAE4CF24F3399423FF6EAAE18
:1053F000002C7FF4E7AEA949A9481DF041F90A2223
:105400005146A748DFF8B4A21DF07BF9A549A4488E
:105410001DF036F9A44B9AF8002019780591052063
:105420001870012004928AF800703070FCF7D0FFE9
:105430009D4B0599049A19708AF80020357089F8F7
:10544000005098F85D30002B00F04A81974994484D
:10545000954C1DF02BF933789148072B96BF944A51
:10546000944A52F823202378072B96BF9049914BFA
:1054700051F8233090491DF019F99049904B097863
:105480001B689BF80020072996BF8948894950F876
:105490002110009182488B491DF008F9327880482C
:1054A000072A4FF0000398BF814988F85D302378C0
:1054B00094BF51F822207F4A3370072B96BF7C4956
:1054C0007C4B51F8233080491DF0F0F8039B013BE1
:1054D00003937FF40EAE3AE1012F31D1002D40F05D
:1054E0000E824CF24F30814200F2FC81002C00F021
:1054F000008276496A48714C1DF0C2F80A22514672
:105500006748DFF8A4A11DF0FCF8664964481DF067
:10551000B7F8052123789AF800208AF800100421B2
:105520000592049327703170FCF752FF059A049B93
:1055300023708AF80020357089F800502C4680E7E7
:10554000022B24D1002F40F0E181012D02D0EA0787
:105550007FF538AE002C7FF437AE5D495048574F89
:105560001DF08EF80A2251464D48DFF83CA11DF08F
:10557000C8F84C494A481DF083F89AF800203B7857
:10558000059203218AF8001004930221B2E6012B50
:1055900023D117BB022D02D0AB077FF513AE9BF8CA
:1055A0000040002C3FF410AE4A493D483E4F434C6A
:1055B0001DF066F80A22514639481DF0A2F8394913
:1055C00037481DF05DF803223B783A70012294F8C9
:1055D00000A0049322700222C0E6022F2BD1002DDE
:1055E0007FF4F0AD4CF24F3399423FF6EBAD002C17
:1055F0007FF4E8AD38492A482B4F304D1DF040F874
:105600000A22514626481DF07CF8264924481DF000
:1056100037F803223B783A70022295F800A02A70EE
:10562000012204933270FCF7D3FE049B3B7085F893
:1056300000A0347069E6012F7FF4C4AD002D7FF423
:10564000C3AD4CF24F3399423FF6BEAD022A02D0B1
:10565000042A7FF4B9AD002C3FF4B6AD1F491048C1
:10566000114D164C1DF00CF80A2251460C481DF045
:1056700048F80C490A481DF003F8032395F800A0E8
:105680002B7001232778237002233370FCF7A0FED0
:10569000277085F800A00024CBE700BFE9A3020033
:1056A0001C390020D6A30200480500205CA402009B
:1056B000D4A90200FE860200A9A4020088060020E8
:1056C00004050020FDA4020046A50200FDA302007F
:1056D00013A4020021A4020031A4020045A4020088
:1056E000FBF730F9002C32D1904B1B78012B2ED9CF
:1056F0000A20991E013BB1FBF0F200FB1212B3FB32
:10570000F0F100FB11338A49885CC95C04284BD155
:1057100001291CD1874951F8222051F823309B1AC6
:1057200044F61F62934212D8834A33781370834A37
:105730008349844813701CF0A3FF33788148072BFA
:1057400096BF814A814952F823101CF0A5FF804B77
:105750001B7863B17F4B1B781BB17F4B012283F811
:1057600098207E4B1B78012B22D0022B2AD07C4C18
:10577000FEF750FA2378002B40F0D480794D33782F
:105780002A789A4200F0CE80002B00F0CB80FBF705
:10579000DFFF33782B702378002B00F0C38007B035
:1057A000BDE8F04FFCF796BA0128D0D10429B0E744
:1057B00069486D4B90F89810002960D0002280F85D
:1057C00098201A604FF0A043634CD3F8105594F81A
:1057D0009030EF43FF0FBB42C9D01DF085FB94F81A
:1057E000903084F89130002D84F89070C4F89400C3
:1057F000DFF8AC815D4C4ADB022388F800305C495D
:10580000012323704F485B4F5B4D1CF04FFF5B4BF8
:105810001B7813B13B78002B40D198F800205849F1
:105820002078087001232B70564B022A1A601C4600
:105830004FF00A0235D1FF23009200211A460320BF
:10584000FAF718FFFBF7BEFF4F4A236853714F4B1F
:105850001B68013393604E4B186850B14D4C237850
:105860003BB1002101F03CF800230A2023701DF019
:105870004AFBFEF71BFC00232B703B7077E71A688E
:105880000132312A01D81A6071E719609AE70323BF
:1058900088F80030002340492370B3E700232B70C1
:1058A00065E700230092FF211A46C8E7002B3FF46A
:1058B0000DAE072B98BF244A019598BF52F82320BC
:1058C000D8F87030009388BF204AD8F86C3033493C
:1058D0001C481CF0EBFED8F86C0000283FF47AACB2
:1058E000281A7CE4022B3FF46FAC012B7FF4A9AEA5
:1058F0006AE4022B0ED1022A18BF2C4664E4022B64
:105900003FF462AC012B7FF499AE5DE4022F3FF4CB
:1059100066AE57E4012B7FF494AE022A7FF498AE72
:105920002C4651E407B0BDE8F08F00BF3B040020D7
:1059300031040020080400208806002048050020CB
:105940008BA502001C390020D4A90200FE860200AB
:105950000500002087060020C0020020060000206D
:105960009D06002030040020040400209103002044
:10597000B4A10200A10300208F03002085060020AF
:105980004404002004050020180500202400002005
:105990007806002014050020C2A10200F6A2020031
:1059A000070000202DE9F041484D2B78002B00F036
:1059B0008B801DF099FA464B1A68821AB2F5967FD1
:1059C0000DD2444B1B68C01AB0F57A7F7CD9BDE874
:1059D000F041414941484FF496731CF067BE40497D
:1059E000404E414FDFF83881134602463B481CF0D9
:1059F0005DFEFBF7E7FE3D4B3D4A1B6801339360BC
:105A0000FEF754FB1DF070FA3A49044647F2305253
:105A100032481CF04BFE1DF067FA47F22F53001B73
:105A200098422ED8FFF740FB3378002B31D01DF081
:105A30005BFA021B304C314928481CF037FE2068C5
:105A400030B100F093FF18B12068002100F048FF4A
:105A50002B4E337853B12B4C2B4922781F481CF026
:105A600025FE2A4A002333702370136000232B7015
:105A70001DF03AFABDE8F0410246254917481CF0EE
:105A800015BE1DF031FA2349021B14481CF00EFE0E
:105A9000DEE73B78002BCAD198F8003023B11DF027
:105AA00023FA1D49021BF0E7134B186818B90A20A6
:105AB0001DF029FAAFE700F059FF0028F7D11DF0DB
:105AC00013FA1649021BE0E7BDE8F08185060020C5
:105AD0004405002088070020B8A502001C390020DA
