:100000000000042029F4010069F4010081F80100D6
:100010006DF401006FF4010071F4010000000000B4
:10002000000000000000000000000000A10302002A
:1000300075F4010000000000C103020079F4010022
:100040005107020099FC0000A10002007BF40100AE
:100050007BF401007BF40100F1C401007BF401009A
:100060007BF401007BF401007BF40100B1FC000093
:100070007BF40100A5FC00007BF401007BF401008F
:100080007BF40100B1C901007BF401007BF40100A5
:100090007BF401007BF401007BF401007BF40100A0
:1000A0007BF401007BF401007BF401007BF4010090
:1000B0007BF401007BF40100000000000000000060
:1000C0007BF401007BF401007BF401007BF4010070
:1000D0007BF401007BF401007BF401007BF4010060
:1000E0007BF401007BF401007BF4010000000000C0
:1000F000000000007BF40100000000007BF4010020
:1001000000000000000000000000000000000000EF
:1001100000000000000000000000000000000000DF
:1001200000000000000000000000000000000000CF
:1001300000000000000000000000000000000000BF
:1001400000000000000000000000000000000000AF
:10015000000000000000000000000000000000009F
:10016000000000000000000000000000000000008F
:10017000000000000000000000000000000000007F
:10018000000000000000000000000000000000006F
:10019000000000000000000000000000000000005F
:1001A000000000000000000000000000000000004F
:1001B000000000000000000000000000000000003F
:1001C000000000000000000000000000000000002F
:1001D000000000000000000000000000000000001F
:1001E000000000000000000000000000000000000F
:1001F00000000000000000000000000000000000FF
:1002000010B5054C237833B9044B13B10448AFF350
:1002100000800123237010BD780200200000000040
:100220004454020008B5034B1BB103490348AFF324
:10023000008008BD000000007C0200204454020041
:10024000A3F5803A704700BF174B002B08BF134B34
:100250009D46FFF7F5FF00218B460F461348144AD1
:10026000121A21F071FA0E4B002B00D098470D4B5B
:10027000002B00D098470020002104000D000D48FD
:10028000002802D00C48AFF3008021F0D7F92000FD
:1002900029001FF08BF821F0BDF900BF0000080015
:1002A0000000000000000000000004207802002090
:1002B000F4530020000000000000000008B50121F8
:1002C0000D201FF0D1FC0D201FF050FD01210E204C
:1002D0001FF0CAFC0E201FF049FD01210F201FF066
:1002E000C3FC0F201FF042FD102001211FF0BCFCB9
:1002F000BDE8084010201FF039BD7047014B0122B6
:100300001A70704735030020014B01221A707047A4
:100310003A030020014B01221A7070473703002076
:10032000014B01221A707047D202002070477047BB
:10033000704770477047000008B532201CF0D8FAAB
:10034000014B01221A7008BDD802002038B5074CB5
:10035000154620681CF0CCFA0DB10D2D04D1206893
:10036000BDE838401CF0C4BA38BD00BFA802002068
:1003700010B504461FF054F8204610BD10B50446D1
:100380001FF04EF8204610BD10B504461FF048F887
:10039000204610BD10B504461FF042F8204610BD9F
:1003A00008461FF06BB8084611461A461FF06AB897
:1003B000084611461FF064B81FF08AB808B51FF050
:1003C00087F8BDE8084040001FF05EB808B501207E
:1003D0001CF08EFA4FF0A04340F20342C3F82C27E2
:1003E0000120C3F83C27C3F85027C3F83427C3F8CB
:1003F0006427BDE808401CF07BBA08B501201CF05A
:1004000077FA01210B201FF02FFC05201CF070FA59
:1004100001210F201FF028FC012114201FF024FCD3
:1004200001210D201FF020FCBDE80840012119200A
:100430001FF01ABC08B5144B1B781BB103211F20F9
:100440001FF012FC032211491A201BF0EBFF0321BD
:100450001C201FF009FC02220D491C201BF0E2FFAA
:1004600003211D201FF000FC02220A491D201BF061
:10047000D9FF032104201FF0F7FBBDE8084006491F
:10048000022204201BF0CEBF9D02002021030000A9
:10049000FD020000090300001503000070B50321F0
:1004A0001C201FF0E1FB03211D201FF0DDFB0321B9
:1004B00004201FF0D9FB1C201FF038FC374D384CAE
:1004C00010B300232B7001231D2023701FF02EFC7E
:1004D000344EE8B1002333700223042023701FF050
:1004E00025FC314BC0B100221A70032229782270FA
:1004F0001B78327841BBAAB993B9042121704FF01F
:10050000A0414FF4413023E001232B700723DBE7A8
:10051000012333700723E0E701221A700722E5E781
:100520000521EBE7002BEAD10621E7E74FF4413242
:1005300016E04FF441331BE04FF4013226E04FF058
:10054000A04340F20E4221E04FF0A0414FF40130B1
:10055000C1F870074FF0A041002AE7D04FF40132F4
:10056000C1F874274FF0A042002BE2D04FF40133C2
:10057000C2F810370D4B1B78002BE0D00C4B1A78CB
:100580004FF0A043002AD7D04FF44132BDE870406D
:10059000C3F87C270A201CF0ABB900BF2A03002057
:1005A000130000202B0300202C0300209D020020BC
:1005B000A00200204E4A4F4B11781B784FF080422A
:1005C00089B1012B03D10B23C2F81C3513E0022B98
:1005D00001D10C23F8E7032B01D10D23F4E7042B01
:1005E00009D10E23F0E7012BEED0022BECD0032B28
:1005F000EAD0042BE8D0404A404B11781B784FF0EA
:100600008042E9B1012B03D10B23C2F8203525E04C
:10061000022B01D10C23F8E7032B01D10D23F4E7C2
:10062000042B01D10E23F0E7052B01D10F23ECE7BA
:10063000062B01D11023E8E7072B0FD11123E4E7A4
:10064000012BE2D0022BE0D0032BDED0042BDCD038
:10065000052BDAD0062BD8D0072BD6D04FF080410F
:10066000274BD1F81C2527481A70D1F82035037084
:100670002548006803280ED1D2B29632C1F81C2555
:10068000224A1268072A10D1DBB2A0334FF0804211
:10069000C2F820357047022802D1D2B26432EDE7A9
:1006A0000128EDD1D2B23232E8E7062A02D1DBB21C
:1006B0008C33EBE7052A02D1DBB27833E6E7042A74
:1006C00002D1DBB26433E1E7032A02D1DBB250335B
:1006D000DCE7022A02D1DBB23C33D7E7012A02D1A0
:1006E000DBB22833D2E7002AD4D1DBB21433CDE712
:1006F000D002002010000020A002002013000020E3
:100700001100002012000020540300201C000020D3
:1007100010B5874A1378962B2CD98649097811B1E0
:100720008549032008606A3313701378834C012BCA
:1007300038D1834A002111702370824A1378A02B8C
:1007400064D9814907200860603313701378012B46
:1007500040F08E807D4A002111707D4A137023780D
:10076000012B40F0CF807B4B00225A737A4B03223F
:100770001A60CEE0642B07D96E49097811B16E4931
:1007800002200860643BCFE7322B07D9694909781A
:1007900011B1694901200860323BC5E76F4B012167
:1007A0001970C2E7022BC4D0032BC2D0042BC0D0D7
:1007B0000B2B03D1624A01231370BDE70C2B04D12C
:1007C0005F4B01221A700223B6E70D2B04D15C4B5C
:1007D00001221A700323AFE70E2B04D1584B0122DC
:1007E0001A700423A8E75E481BF0D4FD0A201CF011
:1007F0007FF822460123022159481BF001FE042301
:10080000584A574819461BF0FBFD96E78C2B04D934
:100810004D4906200860743397E7782B04D94A497C
:1008200005200860783B90E7642B04D946490420F2
:100830000860643B89E7502B04D9434903200860D2
:10084000503B82E73C2B04D93F49022008603C3BE7
:100850007BE7282B04D93C4901200860283B74E73A
:10086000142B7FF673AF384900200860143B6CE707
:10087000022B3FF46FAF032B3FF46CAF042B3FF41C
:1008800069AF052B3FF466AF062B3FF463AF072B30
:100890003FF460AF0B2B03D12C4A012313705CE7AC
:1008A0000C2B06D1294B01221A70294B02221A70F7
:1008B00055E70D2B05D1254B01221A70244B03223D
:1008C000F5E70E2B05D1214B01221A70204B042293
:1008D000EDE70F2B05D11D4B01221A701C4B052291
:1008E000E5E7102B05D1194B01221A70184B06228F
:1008F000DDE7112B7FF433AF144B01221A70144B38
:100900000722D4E7022B05D1124A00215173124A63
:10091000136010BD032B02D10E4A0121F6E7042B10
:10092000F7D10C4B01225A730B4B022220E700BF78
:1009300011000020060000205403002010000020B9
:10094000D0020020120000201C0000209F02002086
:1009500013000020E402002024000020D302002025
:10096000BC0200204C0300202DE9F041DDF8188086
:1009700004460F4616461D46FFF73FFD01201BF0BB
:10098000B7FF012C34D100210F201FF0ABF9214615
:100990000B201FF0A7F9C7F1FF0114201FF012F977
:1009A000C6F1FF010D201FF00DF9C5F1FF0119205F
:1009B0001FF008F9B8F1000F16D040461BF098FF61
:1009C00000210B201FF08EF900210F201FF08AF963
:1009D000FF2114201FF0F6F8FF210D201FF0F2F880
:1009E000FF2119201FF0EEF8BDE8F041FFF7EEBC43
:1009F000022C0DD1074BB3F9062040F647539A421B
:100A000006DD00210B201FF06DF901210F20C0E74A
:100A10000121F7E7E402002008B5074B01221A6024
:100A20001BF05EFF054B18601BF05AFF044B18606B
:100A3000BDE808401BF054BF28000020AC02002095
:100A4000B00200200D4B10B501241C700C4B1C7023
:100A5000FFF7E2FF0B4B44F620621A600A4B40F2AC
:100A6000DC521A60094B1B780BB1094B1C700A2031
:100A70001BF03EFF074B01221A7010BDB40200208C
:100A8000D10200200C0000200800002029030020D3
:100A9000E2020020E102002013B5FFF7D3FF0A2491
:100AA000FF221146002300940220FFF75DFF1E2065
:100AB0001BF01EFFFF221146009400230120FFF7C8
:100AC00053FF054B00221A70044A01231360044AA5
:100AD000137002B010BD00BF52030020DC020020E2
:100AE000D002002013B50A24FFF7ACFFFF23322207
:100AF000002100940120FFF737FF1E201BF0F8FEB5
:100B00000094FF23322200210220FFF72DFF054A27
:100B100000231370044A02211160044A137002B0CA
:100B200010BD00BF52030020DC020020D0020020D4
:100B3000114A124B12781B68D2B9114A012B126864
:100B400009D110490968914205D10F4B93F90D3035
:100B500063B1FFF7A1BF93420CD10A4B1B68012B75
:100B600008D1094B93F90D30002BF2D0FFF7BABF33
:100B7000044A1360704700BFE1020020F402002025
:100B80002400002054030020E402002070B503215B
:100B90001C201FF069F8644C03211D201FF064F82D
:100BA000032104201FF060F82378002B71D003216B
:100BB0001F201FF059F82378002B6AD01D201FF04A
:100BC000B5F8002839D0594A59491368012B154600
:100BD0002FD15848006802282BD1574E367846B39B
:100BE0000B601060FFF7A4FF1F201FF09FF8002884
:100BF0003DD02378002B3AD0504B01221A70504B35
:100C000032221A604F4B04221A701A201FF08EF8FD
:100C100070B94D4B01221A70494B18681BF068FEE1
:100C20004A4B4FF47A721A60494B46F2A8121A6086
:100C300070BD0B6002232B60D6E704201FF076F80E
:100C40000028D1D0394A3A491368012B15460BD1F7
:100C500038480068032807D1374E367826B110602F
:100C60003C4A0B601370BDE70B600323E3E71F20D2
:100C70001FF05CF805460028C7D12378002BC4D0AC
:100C80002F4B18681BF034FE2C4B03221D702D4B8C
:100C9000BAE7314B1B78002BB7D0304B1B78022BB7
:100CA00015D1224B1968012918460DD1214A126825
:100CB000022A09D11E481A600160FFF739FF204B54
:100CC00018681BF015FEA0E702230360F7E7032B6B
:100CD0000AD1164B19680129184603D1154A126822
:100CE000032AE7D00323F0E7012B8ED10F4C2268B3
:100CF000032A08D10F4A1268032A12D10C49236033
:100D00000A60FFF715FF2368022B0AD1094B1B6805
:100D1000022B06D1064A136001232360FFF708FF68
:100D200073E70123236070E79D0200205403002035
:100D3000F402002024000020A2020020A0020020D3
:100D40002800002005000020D2020020080000201A
:100D50000C000020280300209C020020130000202B
:100D60004FF0804310B50124C3F87845214AD3F8E9
:100D70001C151170D3F820251F4B1A704FF0A0439B
:100D80001E4AC3F868271E4B18681BF0B1FDFFF719
:100D9000BFFCFFF7FBFEFFF74DFB1A4B1B78DBB9DF
:100DA000194B1B68C3B1194B1B78ABB9184A1278A1
:100DB000002A184A14BF214602211160164A44F63F
:100DC00020611160154A1370154A1370154A13708B
:100DD000154A1370154B1C7001201BF089FD4FF054
:100DE00080430124DC67FFF717FE2046BDE8104072
:100DF0001BF07EBD11000020120000200C04030037
:100E000098020020950200201C000020A50200206E
:100E1000D0020020DC0200200C000020360300205D
:100E20003B03002038030020480300204903002032
:100E300008B501201EF000FE0C201EF0F7FD012079
:100E40001BF056FD1E201EF009FE014BD88008BD88
:100E5000E40200202DE9F041FFF7DEFD494B4A4E48
:100E60001B78002B4ED03378002B39D0474C484F9D
:100E7000484D002333702368012B02D1464B1B7869
:100E800033B33B7823BB454B1A78984612B9424B93
:100E90001B78EBB1FFF702FB98F80010404B31B123
:100EA000404A12781AB91A6801321A6004E01A68C6
:100EB000002A24DD0029F7D12B68236001232B6051
:100EC000FFF778FB384B18681BF012FD1EF034FD5D
:100ED000364A002313702A68226001222A603B7080
:100EE00001233370324B00241C70324B1C60324B98
:100EF00018681BF0FDFC314B1C70BDE8F081DBD1A4
:100F00000122D2E7214D224F2B68224C012B03D125
:100F1000214A1278002A32D03B7823BB1F4B1A7823
:100F2000984612B91C4B1B78EBB1FFF7B7FA98F84B
:100F300000101B4B31B11B4A12781AB91A680132E2
:100F40001A6004E01A68002A16DD0029F7D1236828
:100F50002B6001232360FFF72DFB134B18681BF058
:100F6000C7FC1EF0E9FC23682B60012323600F4BB4
:100F700000221A700023B2E7E9D10122E0E72360E2
:100F8000F8E700BFA302002034030020F402002091
:100F9000360300205403002048030020B402002040
:100FA0001C000020D802002020000020E1020020C8
:100FB00039030020D4020020300300203503002034
:100FC000F8B5FFF729FD494B494C1B78494D002BDB
:100FD00059D1494E33781BB9484B1B78002B52D05E
:100FE000474B1B78002B30D0464F3A78042A14D157
:100FF0002268012A29D1444B1B68012B4FF00203C0
:1010000014BF23602B60414B18BF2A6000221A7066
:10101000FFF78EFD4FF0FF3323603B78022B14D196
:101020002268012A11D1384B1B68022B4FF00303B1
:1010300014BF23602B60354B18BF2A6000221A7042
:10104000FFF776FD4FF0FF332360FFF727FA317883
:101050002F4B31B12F4A12781AB91A6801321A602F
:1010600004E01A68002A25DD0029F7D12368012B46
:101070001CBF02232360FFF79DFA274B18681BF063
:1010800037FC1EF059FC2B68244E022B1FBF23682F
:101090002B600223236017BF1C4B236000221A70B1
:1010A0001F4B1B784BB133787BB123682B60022335
:1010B00023600AE0DAD10122D1E71A4B1B7823B171
:1010C0001C201EF033FE0028EFD0174B00241C70AC
:1010D00001233370154B1C60154B18681BF008FC7E
:1010E000144B1C70BDE8F840FFF722BD3B03002005
:1010F00054030020F4020020B40200204803002022
:101100009402002010000020DC020020E1020020F8
:101110001C000020D80200202000002039030020FD
:10112000A4020020A102002034030020D4020020E9
:10113000300300203A030020F8B5FFF76DFC434B65
:10114000434C1B78434D002B57D1434E33781BB98A
:10115000424B1B78002B50D0414B1B78002B2ED0DC
:10116000404F3A78032A12D12368012B27D13E49F8
:101170000968012918BF2B603C4B14BF22602A600C
:1011800000221A70FFF7D4FC4FF0FF3323603B7846
:10119000012B14D12268012A11D1334B1B68022B79
:1011A0004FF0030314BF23602B60304B18BF2A603D
:1011B00000221A70FFF7BCFC4FF0FF332360FFF7EB
:1011C0006DF931782A4B31B12A4A12781AB91A6866
:1011D00001321A6004E01A68002A34DD0029F7D1D0
:1011E0002368012B1CBF03232360FFF7E3F9224B85
:1011F00018681BF07DFB1EF09FFB2B68032B1FBFA5
:1012000023682B600323236017BF184B2360002241
:101210001A701A4B1B783BB11C201EF087FD18B9C1
:1012200023682B6003232360154B00241C70154B8F
:101230001C60154B18681BF05BFB144B1C70BDE861
:10124000F840FFF775BCCBD10122C2E7380300207C
:1012500054030020F4020020B402002048030020C0
:101260009402002010000020DC020020E102002097
:101270001C000020D802002020000020A102002035
:1012800034030020D4020020300300203703002064
:1012900008B4F0B50E46114682B00446C81D20F0D1
:1012A000070000AF07F11C03ADEB000D6D4653F8CE
:1012B000042B3B602846B04704F108030F2805EBD8
:1012C00000062360786007D90022391D20461FF0F0
:1012D0008FFA7B682060A3602068324629461FF0A1
:1012E000BAFA7B6822686360002120460837D1542F
:1012F000BD46BDE8F04001B07047000073B504463C
:1013000016460D4619B912B10D481FF066FA731B47
:101310000F2B019307D9002201A920461FF068FA7C
:10132000019B2060A3603246294620681FF098FA8E
:10133000019B226863600021D15402B070BD00BFE0
:10134000AA20020038B500F10803044603600D46E8
:1013500059B1084620F027FC2A1820464FF0000318
:101360002946FFF7CBFF204638BD4FF0FF32F4E7A8
:10137000F0B5AF4C2378A3B043B9AE481BF00AF8E0
:101380000423AD4AAB4819461BF03AF8AB4B1B7827
:1013900013B1AB4B72221A60AA4BA74D1B78002BDE
:1013A00040F00E81A64B0A22196802A81BF04FF9E3
:1013B00002A905A81BF02FF9A34905A81BF07CF989
:1013C000A24B064619680A220AA81BF040F90AA98E
:1013D00030461BF065F90A220646296810A81BF062
:1013E00036F910A930461BF05BF997491BF064F9F8
:1013F000974B0A22B3F90610064616A81BF027F9E8
:1014000016A930461BF04CF9014692481BF0F4F83F
:1014100016A81BF099F810A81BF096F80AA81BF064
:1014200093F805A81BF090F802A81BF08DF88A49E4
:1014300016A8FFF787FF16A800F0DAFD16A81FF020
:10144000F9F9834BB3F9063040F6A562934240F3B5
:101450001B812B68032B40F01B81082000F06DFDE1
:1014600000F038FD7D4E0546306004201DF0D4FFAD
:101470007B4B036001460122284601F00FFB3068D8
:10148000784901F08CFB237806464BB34FF4007388
:101490007549764F1E2201F03AFF237838600546E1
:1014A000F3B104201DF0B8FF714B036001462846DC
:1014B00000F09EFC23789BB16E4B3C681B686E4924
:1014C000009310226D4B16A8FFF7E2FEBDF85C20DA
:1014D000169904F11C0000F0FDFB16A81FF0AAF9F4
:1014E000304601F07FFD0322114616A800F022FFCE
:1014F000012116A800F041FF002116A800F038FFD6
:1015000058490AA8FFF71EFF0AA905A801F018FF0D
:10151000504B10A81968FFF715FF10AA05A916A8C7
:1015200001F054F910A81FF085F90AA81FF082F9FC
:101530004C4910A8FFF706FF10A90AA801F000FF08
:1015400000231420CDE9053307931DF065FF0AAC95
:1015500000F11406059005460FCC0FC523682B60DB
:1015600005A916A80796069601F042F8059808B155
:101570001DF056FF10A81FF05DF900F0C7FC0446EF
:1015800004201DF049FF3E4B036001460122204626
:1015900000F0ACFE16AA0021204600F001FE394DF5
:1015A00028B100231A461946204600F059FE286843
:1015B0001BF09EF9169808B11DF032FF23B0F0BD64
:1015C00001230A224A2105A823701BF040F805A92F
:1015D0000AA81BF020F81C490AA81BF06DF80A2283
:1015E0000646296810A81BF032F810A930461BF0F7
:1015F00057F815491BF060F8154B0A22B3F906108D
:10160000064616A81BF023F816A930461BF048F82A
:10161000014610481AF0F0FF16A81AF095FF10A81E
:101620001AF092FF0AA81AF08FFF05A8FDE600BF86
:10163000E3020020BC0200204C03002051030020E4
:10164000DC02002050030020A8200200F802002045
:10165000E402002014030020D42002002403002010
:1016600018210200D7200200DC2002002003002005
:101670004C2102001800002051F30100E12002007B
:101680006C210200A802002040F64752934205DD7B
:101690002B68023B012B01D80420DFE62B68013BBD
:1016A000022BF9D80020D9E637B5434B434D1A78C1
:1016B0002B784349434CB3B1434B09781B7899428B
:1016C00018BF0123414918BF237000230B60404914
:1016D00046F2A81008603ABB237843B93D4B1B780B
:1016E0002BB903B030BD0B702370002AF6D0FFF782
:1016F0009FFB394B1B783BB338490B68002B23DD2C
:10170000227832B1364A1278042A02BF354A0120C3
:101710001070012B18D0344A106801282ED1022BEA
:1017200004D10B2313600FE02370E0E7032B01D1FA
:101730000C23F7E7042B01D10D23F3E7052B01D18F
:101740000E23EFE701230B602A78237842B34BB3D3
:10175000234B1A78244B1A60214B1B78042B4FF033
:101760000A03009311BF00220023FF2219461CBF69
:10177000FF2311460320FFF7F7F813E00228E3D117
:10178000022B01D11523CDE7032B01D11623C9E785
:10179000042B01D11723C5E7052BD3D11823C1E7AB
:1017A000002BD9D1114B124A1B680133936003B04F
:1017B000BDE83040FFF7DCBDB40200209D020020F0
:1017C000A00200209E0200209F02002008000020AE
:1017D0000C00002049030020040000201C00002011
:1017E0000500002051030020DC020020140000202E
:1017F000E402002008B5054B18681BF079F8044B8B
:1018000001221A70BDE80840FFF74EBFA802002071
:101810002903002008B5074B40F6D862DA80064A53
:1018200001231370054A1370FFF7A2FD044B002239
:101830001A7008BDE402002050030020E0020020DE
:10184000D2020020394B1B7813B543B9384B1B68C3
:10185000002B68D002B0BDE81040FFF769B9354CE5
:1018600035480123224602211AF0CAFD04231946F5
:10187000324A31481AF0C4FD2F481AF079FD012090
:101880001BF036F823782E4A0133DBB2052B237088
:1018900004BF01232370237840F6A661012BD18079
:1018A00025D14FF4FA73FF22009311460023022042
:1018B000FFF75AF81F4A2048012302211AF06CFC56
:1018C00040B91D481AF0ECFC1A4A1B4801230221BA
:1018D0001AF062FC0A201BF00BF81A4B00221A7057
:1018E000FEF768FE02B0BDE81040FFF793BF022B81
:1018F00007D14FF4FA7300933222FF230021012015
:10190000D6E7032B06D14FF4FA7300933222FF235C
:101910000021CCE7042BCDD14FF4FA73FF220093C2
:1019200011460023EBE702B010BD00BFD202002039
:101930005403002010000020BC0200204C030020B3
:10194000E4020020D0020020514B1B782DE9F04129
:101950000BB1FFF735FB4F4B1B780BB1FFF7ECFBDF
:101960004D4B1B780BB1FFF775FA4C4B1B78002BD6
:1019700040F08B804A4F3B780BB9FFF763FFDFF8ED
:101980006881484D484E1AF0ABFFD8F80030C01AB5
:101990002B6898421DD3454C2378D3B91AF0A0FF89
:1019A00001232370424CC8F8000022780AB9FFF7DF
:1019B00021FF3B786BB93F4B1B7853B93E4B1B78EB
:1019C0003BB93E4B1B7823B9237813B94FF4FA7314
:1019D00033601AF085FF3A4A31681368C01A2B68E1
:1019E000384D0B449842164606D22B78002B4CD02B
:1019F000354B1B78002B48D1344B354C01221A70E3
:101A00002D4B1B7863B92368934225DD314B1B783E
:101A100033B12B7813B9304B1B780BB900232360FB
:101A20001AF05EFF2B7830600BB100232360FEF7C5
:101A3000C1FDFEF733FD294B18681AF059FF2368E2
:101A4000E3B90A201AF054FF4FF080430122C3F893
:101A50000025D3F80035FEE7214B1B780BB101239D
:101A6000DDE7204B1B68033B012BD7D92B78002BDC
:101A7000D4D1194B1B78002BF1D1CFE764201AF099
:101A800037FFBDE8F0411DF057BFBDE8F08100BF52
:101A90003A03002037030020350300209502002080
:101AA000B4020020080000200C000020E00200200A
:101AB000D20200209E0200204A0300204903002099
:101AC000B0020020D8020020E302002029030020F9
:101AD0001C00002004000020D1020020A8020020E9
:101AE000E2020020DC020020AC02002010B58AB027
:101AF000002934D000231C3101A8CDE90133ADF811
:101B00000C3000F0A5F80199BDF80A20154C06AB81
:101B10000A44049304A84FF00003FFF7EFFB01A869
:101B200000F08EF804981FF05CFD20600E481AF05B
:101B300031FC04230C48224619461AF02DFB40B90B
:101B400009481AF0ADFB04230748224619461AF04B
:101B500023FB064B002204A81A701EF06BFE0AB08D
:101B600010BD00BF4C030020BC020020E302002097
:101B700070B51E4C1E4B1F4E254645F8043B1DF00C
:101B8000A7FC214682B228461B4D1AF0D3FA1B4A05
:101B90001B4920461EF019FE1A4C294630461AF001
:101BA00018FD3046184E154A21461EF00EFE2946F5
:101BB00030461AF00EFD3046144E104A21461EF0F3
:101BC00004FE29463046124D1AF003FD0B4A214609
:101BD00030461EF0FAFD0F4928461AF0FAFC21465D
:101BE0002846064ABDE870401EF0EFBDB80200204E
:101BF000F420020008030020E4200200000000207E
:101C00003503000049C50100140300203C030020F7
:101C1000FC020020FB2E020070B50E460121044696
:101C2000701815461CF04FFAB5F5007F28BF4FF429
:101C3000007500232060A580E3802681204670BDCA
:101C400010B50446006808B11CF041FA204610BDEA
:101C500070B50C4609890546013100681CF035FA5B
:101C600006461AF085FEA388E2882E60AB802389A1
:101C7000EA8021682B81304601321FF03DFDBDE82E
:101C800070401AF07DBE2DE9F041044688461746A3
:101C9000EAB1C588838815449D4218DC038906682B
:101CA000ADB2AB4205D23046691C1CF00EFA25815C
:101CB00006461AF05DFEE0883A46414630441FF081
:101CC0001BFD00232660E58073551AF059FE20465F
:101CD000BDE8F081F8B5054600240F461646C480DD
:101CE000FFF7D1FF2868324639461FF0F7FC20B9CC
:101CF000EB889B1B58425841F8BD2046FCE77047D3
:101D0000C36A0A46196810B48C680146184623460F
:101D10005DF8044B184770477047704710B504468C
:101D20001DF07EFB204610BD70B504461C301D46DC
:101D3000FFF7D0FFE06A03682A462146DB68BDE86A
:101D40007040184770B5D0E90D560C4B036004463F
:101D5000B54207D055F8040B0028F9D003685B683A
:101D60009847F5E7606B08B11DF05AFB2046044B1D
:101D700040F81C3BFFF764FF204670BD9C21020029
:101D80008421020010B50446FFF7DCFF20461DF059
:101D900047FB204610BD0000F8B50D4604469C46A2
:101DA0001746061D0FCD0FC62B6833602046002551
:101DB0000A4B2583A576624640F81C3B1421FFF7A9
:101DC0002BFF074B2360074BE362069B2785C4E983
:101DD0000C35C4E90E552046F8BD00BF8421020031
:101DE0009C2102002C000020008D70470163704789
:101DF000024B002908BF1946C16270472C00002021
:101E0000024A034903481EF0E0BC00BF0000002066
:101E1000FF1C00002C0000207047704710B50446DE
:101E20001DF0FEFA204610BD024A034903481EF089
:101E3000CCBC00BF000000201B1E000030000020B2
:101E4000024B1A780AB100221A7070477003002002
:101E500008B50DF09DF9BDE808400DF00BBF00007E
:101E600010B5134C207810BB0CF0FDFFF8B9012021
:101E70000CF0F9FF0246D0B9014609F0B3FB10B1EE
:101E80000C4B01221A7001201BF0F0FC012323707F
:101E9000094B1B785BB1094B186808B100F0AFFC27
:101EA000074B186818B1BDE8104000F029BA10BD02
:101EB0007003002065030020640300206C030020F1
:101EC0006803002010B50446006808B11DF0A8FAA8
:101ED000204610BD38B5094C236863B920201DF099
:101EE0009BFA054600F0E4FC256008F071F802F06A
:101EF00011FA02F09FFA206838BD00BF7403002079
:101F0000014B1868704700BF7403002038B5064CB9
:101F1000236833B91C201DF07FFA054600F026F92E
:101F20002560206838BD00BF6803002008B5FFF7B2
:101F3000EDFFBDE8084000F0B7B91FB5012200234E
:101F40008DF808008DF80C30009203AB02A9022036
:101F500008F0ECFDB0FA80F0400905B05DF804FB34
:101F6000014B1868704700BF3400002010B50C46C4
:101F700005F0A4F904B1206030F002030CBF012089
:101F8000002010BD30B5044687B00D461422002154
:101F900001A81FF0D9FB0223208C8DF8043001A981
:101FA00002950BF0FBFDB0FA80F0400907B030BDA0
:101FB00030B587B004460D461422002101A81FF059
:101FC000C3FB0423208C8DF804300DEB03018DF846
:101FD00008500BF0E3FDB0FA80F0400907B030BDC7
:101FE00008B5006802F080F9B0FA80F0400908BD39
:101FF00037B5124C2278BAB901900DF0ABF8104BFE
:10200000104ADA60104A1A619A68019802F4714124
:102010000E4A0A439A600E4A1A62FFF7E1FF0CF07B
:10202000F5FD0C480DF0F2FD0B4D2B78012013B996
:102030001BF01CFCF9E7207003B030BD64030020E6
:1020400060010020411E0000611E00000308030320
:102050009DE30000511E0000700300200448054A63
:1020600005490023C0E9003383601EF0AEBB00BF0A
:102070005803002000000020C51E00007047704774
:1020800082B0019302B0704710B504461DF0C8F944
:10209000204610BD2DE9FF410446FFF737FF2378A6
:1020A000092B054605D0172B24D0002004B0BDE82D
:1020B000F0816068162807D81D4A01238340134227
:1020C00002D0FFF7BDFEF0E7237AA9685809012284
:1020D00003F01F0302FA03F351F8202022EA03025F
:1020E00041F8202068686268036829469E68237A60
:1020F000B047DAE74668A27A3368D4F80510DF689B
:10210000637A94F8048043EA0223E27A02A843EA5D
:1021100002420EF0ACF8039BADF800301B0C8DF8BA
:1021200002304246029B29463046B847BDE700BF11
:102130000018480008B11DF073B97047002808B5B1
:1021400006D001DA1EF046FBBDE808401DF064B978
:1021500008BD43681F2B03BF00234360036801339E
:102160000ABF0433436003607047000038B50B4B6F
:1021700000250446C0E90135C0E90355C0E905550D
:10218000057004201DF048F9031DA36105600223BA
:10219000C4E9020520616361204638BD3800002093
:1021A00073B5137B82F82510144603F01102112A2F
:1021B00004BF43F002032373237B03F00302022ACC
:1021C0001CBF6FF3C71323730D46FFF799FE064636
:1021D00008B100F086FB2049204B0022964218BF30
:1021E0000B46009204F10C01284604F03BFB01462B
:1021F00010B1002002B070BDD4E90030C01A80B226
:102200000DF0BEF806460028F3D0D4E90012521AA9
:1022100092B20DF0E0F80028EBD1237B03F012031B
:10222000022B3146284614D104F032FD0028E0D1BB
:10223000283420460EF038F80028DBD120460EF076
:1022400021F80146284604F02DFCB0FA80F0400940
:10225000D0E704F0E1FCE9E7492C000095200000FC
:1022600070B50C4611461A460E4B1D78064615B938
:102270000025284670BD0A23204691FBF3F104F0A7
:1022800059FC30F00203F3D16109B268012304F074
:102290001F0403FA04F452F82130234342F821309A
:1022A000E7E700BF7003002073B5044604F02EFD7D
:1022B00030F0020018D1A368CDE90030D4E904560B
:1022C0000124DDE90023AA4204D1B34202D1012056
:1022D00002B070BD116804FA03F321EA030313602E
:1022E0006846FFF736FFECE70020F1E711B14160E7
:1022F00002707047014B4360017070473800002046
:1023000073B583680093D0E9045600230193012438
:10231000DDE90023954201D1B34209D0116804FAE6
:1023200003F321EA030313606846FFF712FFEFE7A8
:1023300002B070BDF8B500250446C0E900550F464F
:10234000164685601C2229460C301FF0FDF9074B0C
:10235000A5621B7863767F23C4F82B5084F8227023
:1023600084F8236084F824302046F8BD65030020FB
:10237000037B61F3410303737047037B61F3000345
:102380000373704710B5D0E900240020A41AA042BE
:1023900007D213185B788B4205D0135C01331844C5
:1023A000F5E74FF0FF3010BD091A08B5531A29B1EF
:1023B0000A46014618461FF0ADF90346184608BD07
:1023C00010B504461046D4E900236FF000449B1A70
:1023D000E21A8A4201D21EF003FA994238BF194626
:1023E000C91805D20029ACBF08466FF0004010BDE7
:1023F0002046FCE710B50C1A134605D001462246CC
:1024000018461FF087F90346181910BD8A4270B5A7
:1024100006460D4614460CD041688A4203D02A462F
:102420002046FFF7E7FF73681C1B2C449C4218BF33
:102430007460284670BD10B50C1A134605D00146CD
:10244000224618461FF066F90346181910BD000011
:102450009A422DE9F84F04460D46164699461ED07D
:102460009F1AD0E90183A3EB0803BB422FD3A8EB4B
:10247000010A574515D2A8EB070A42464146504685
:10248000FFF7D9FF62681744514642466760284605
:10249000FFF78AFF2A4649463046FFF7CCFFBDE8E2
:1024A000F88F02EB0A0B494642465846FFF7C3FF36
:1024B0006268A7EB0A073A44626041462846FFF784
:1024C000BAFF6368534463602A465946E4E73946D5
:1024D0000F4AFFF775FF8046FFF730FE2946074693
:1024E00002462068FFF786FF494602463046FFF75E
:1024F000A2FF616802462846FFF77CFF0546206878
:10250000FFF718FEC4E900754744A760C7E700BF9E
:102510001522020037B5D0E900452C1B1444FB2CD2
:102520000BD84FF000038DF800308B180A4629466F
:10253000FFF78EFF012003B030BD0020FBE7000055
:102540002DE9F74F1446D7089846D3E90032D21A3E
:102550009310264A5A4312FB07F20132202C0646FA
:102560008DF8042029D0802C2CD0102C38D10029B3
:1025700014BF03230223022201A930468DF805303F
:10258000FFF7C8FF054660B3D8E9008A4FF0000B9B
:10259000D04526D0404600F048FFA0420AD1404630
:1025A00000F045FF3A4601463046FFF7B3FF70B1F1
:1025B0000BF1010B08F11408EAE7002914BF052309
:1025C0000423D8E7002914BF07230623D3E7726842
:1025D0006FF001010BFB171111443046FFF716FF96
:1025E0000025284603B0BDE8F08F00BFCDCCCCCC91
:1025F0000B4610220121FFF7A3BF000093422DE9F3
:10260000F84F04460D46164699461ED09F1AD0E94B
:102610000183A3EB0803BB422FD3A8EB010A574564
:1026200015D2A8EB070A424641465046FFF703FF82
:10263000626817445146424667602846FFF7B4FE79
:102640002A4649463046FFF7F6FEBDE8F88F02EB12
:102650000A0B494642465846FFF7EDFE6268A7EB73
:102660000A073A44626041462846FFF7E4FE636881
:10267000534463602A465946E4E739460F4AFFF758
:102680009FFE8046FFF75AFD29460746024620680E
:10269000FFF7B0FE494602463046FFF7CCFE6168C0
:1026A00002462846FFF7A6FE05462068FFF742FDD2
:1026B000C4E900754744A760C7E700BF15220200C0
:1026C00070B588B00446FFF75DFE431C05464FF029
:1026D000000335D0266807939842CDE9053306EB11
:1026E000000102DA17481EF07BF80391FFF726FD80
:1026F000039905904319024630460793FFF79BFE66
:1027000022680690535D1D4401354FF000030146D9
:102710002A448DF8003005A86368FFF76FFFDDE9F4
:1027200005126568079B20680695C4E90012A56834
:10273000A36005900795FFF7FDFC012008B070BD70
:102740001846FBE7E42102002DE9F3410446084660
:102750001E4690460F4600F068FED4E90023C0F301
:10276000C705A819C0B29A1A831C52FA83F3FB2B2F
:102770002AD8042D0CD0102D0CD0022D24D11621D6
:1027800056B92046FFF79CFF012002B0BDE8F0815A
:102790002021F5E72121F3E701308DF804008DF8C1
:1027A0000510022201A92046FFF7B4FE384600F0CA
:1027B0003EFE2A4601462046FFF7ACFE3246414621
:1027C0002046FFF7A7FEDFE70020DEE7D2E900237F
:1027D000FFF7BABF024A034903481DF0F6BF00BF26
:1027E000000000207D200000380000207047704766
:1027F000704710B504461CF013FE204610BD01467C
:10280000162251F80C0B03681B691847024A03494A
:1028100003481DF0DABF00BF00000020ED270000D4
:102820003C00002070477047704770470048704771
:1028300040E201007047704710B504461CF0F0FDFF
:10284000204610BD08460121FFF7B2BB00F1080386
:1028500073B5044603600D46E1B108461FF0A3F9C5
:102860000F2805EB0006019007D9002201A9204698
:102870001DF0BEFF019B2060A36020683246294600
:102880001DF0EEFF019B2268636000212046D154B9
:1028900002B070BD01481DF0A0FF00BFAA200200D9
:1028A00010B52C22044600211EF04EFF204610BD1C
:1028B000027822F007020270054A42600022C0E955
:1028C0000222C26102614FF0FF324261028370470F
:1028D000400000200378DA0744BF43F0020303708E
:1028E000704703782DE9F74FD907044645D406F021
:1028F00061FF002841D1D4E90259A9452ED02868AA
:10290000837D0BB32B68D3E9067ABA4524D057F8F8
:10291000043BD3E90D6B5E45F7D0286800F096FDC7
:10292000804657F8040C043000F090FD01903068A8
:10293000043000F08BFD56F8043B01990246183331
:10294000404607F053FAE6E700F080FD29681431AD
:1029500007F03EFA0028D5D00435CEE723789A0751
:1029600007D56FF3410323704FF6FF71012001F08B
:1029700053FD237843F00103237003B0BDE8F08FCB
:1029800010B500F1140200231A304FF6FF71824295
:1029900005D032F8024B8C42F9D00133F7E7D8B2B8
:1029A00010BD2DE9F0478EB01D4600AF002305F1A4
:1029B0001C0106463846C7E9003314463B81FFF741
:1029C00047F907F10C00FFF76BFF07F10C013046E8
:1029D00003F006FD2378032B5DD8DFE803F0022D1A
:1029E000022D4FF6FF739E4209D063685B79082B76
:1029F0001AD92B6807F10C019B682846984719F0F3
:102A0000B7FFFA88396860680CF0E5FC044619F0F5
:102A1000B7FF002C18BF11243846FFF711F92046E4
:102A20003837BD46BDE8F087304601F09FFD6B8C1E
:102A300002389842DDDCE2E76468B7F80490E68883
:102A40004E45E84602D90D24C546E5E709F10703DE
:102A5000DB08A8EBC3039D46216832466846EA4678
:102A60001EF04AFEE46864B1E288B3189945EADBD7
:102A70000AEB060021681EF03FFEE3881E44B6B252
:102A8000F0E72B683246D3F80C90514607F10C035F
:102A90002846C847D8E70E24BEE70000037821B1D6
:102AA000416062F3820303707047024A426061F33F
:102AB0008203F8E7400000202DE9F84FD0E90098A4
:102AC00093466FF06043A8EB0902B3EBA20F0746F1
:102AD0008A464FEAA20402D11D481DF081FE012C56
:102AE000224638BF0122A418A1EB09052DD23CB122
:102AF0009C4228BF1C46A0001CF08EFC064600E04D
:102B00002646DBF800307351002D04DD2A46494685
:102B100030461EF0FFFDA8EB0A080435B8F1000F9F
:102B2000354404DD4246514628461EF0E5FD454445
:102B3000B9F1000F02D048461CF072FC06EB840489
:102B4000C7E90065BC60BDE8F88F1C46D3E700BF4D
:102B50006422020010B50A46D0E90114A14204D053
:102B6000126841F8042B416010BDFFF7A5FFFBE799
:102B700030B585B00446442001911CF04DFC01990C
:102B8000054600F0F7F903A904F108000395FFF7E3
:102B9000E1FF2046FFF79EFE039805B030BD10B55B
:102BA0008CB0044606A8FFF751FE06A901A800F064
:102BB000C7FB01A92046FFF7DBFF044606A81DF06E
:102BC00039FE20460CB010BD42680B4604318A42E3
:102BD00010B5044604D01846521A1EF09BFD034659
:102BE0006268043A6260184610BDF8B50546FFF702
:102BF000C7FE38BB2F46FFF799F907F0E9F901F056
:102C000089FB01F017FC57F8084FEB68A34215D079
:102C10002668B37D6BB1022B0ED1304600F0C3F9AC
:102C200030461CF0FDFB21463846FFF7CDFF044639
:102C3000EBE7304600F0D6F90434E6E72B786FF383
:102C400000032B70F8BD00002DE9F04393B005465A
:102C500007A80191FFF724FEFFF752F92B7801999D
:102C60000646172B1BD8DFE813F018003D001A00AA
:102C7000E1001A001A001A001A001A00DC00FB001A
:102C800020011A00BA007900AB000601EF00110123
:102C90001A001A001A001A00DC006B680BB100243D
:102CA0001CE0288907A903F09BFB04460028F6D105
:102CB00006F1140306F11A074FF6FF719F421A46F8
:102CC00006D01088884203F10203F7D12B891380C4
:102CD0007068036807AA9B6831469847204613B07E
:102CE000BDE8F0836868162806D8854A012383402A
:102CF000134201D0FFF7A4F806F1140306F11A04F9
:102D0000A3421A4608D01088298D884203F1020395
:102D1000F6D14FF6FF731380F36933B12A8D998C86
:102D2000914204BF4FF6FF729A8433789A0702D516
:102D30003046FFF75AFF05F108070FCF07AC0FC465
:102D40000FCF0FC497E8070084E807007068036896
:102D500007AADC686B683146A047A0E7D0E90267A4
:102D6000B7429CD056F8043BD3E90648A045F7D0BB
:102D70002368EA881B8B9A4220D1A88807A903F010
:102D80002FFB0028ECD12068FFF72EF8079911F0EF
:102D9000010105D110F4606F02D0A888FFF7E6F8B2
:102DA00021686A7AC86A0368C2F3400CC2F3C002A1
:102DB000D3F814900CEB020307AAC8470434D5E7F4
:102DC000A88807A903F00CFB044600287FF467AF2E
:102DD00070682989036807AA1B6998477EE7D0E9CC
:102DE0000227002197420DD052F8043BD3E9063C5C
:102DF0009C45F7D053F8040B6E89048BA64208BF9C
:102E00000146F5E700293FF44AAF2B7B6A68DB07F0
:102E100002D5002A3FF443AFC86A03681B6998478C
:102E20003DE72846FFF736F9044657E7288907A902
:102E300003F0D6FA044600287FF431AF70680368C7
:102E40005B6A07A9984749E7A88807A903F0C8FA69
:102E5000002853D10DF127000BF059FA01243DE76A
:102E6000288907A903F0BCFA04460028F6D1706847
:102E70000368DB69E5E7A88807A903F0B1FA04460F
:102E80000028EBD1706803681B6ADAE7288907A974
:102E900003F0A6FA04460028E0D17068AA7A036815
:102EA00007A99E6AEB7AB04718E71422002102A80E
:102EB0001EF04AFC2B79032B11D18DF80830FFF757
:102EC0004FF8104B0390984204D1706803685B6917
:102ED00098470390A88902A90AF060FEDFE6042B58
:102EE0007FF4DDAEA88907A903F07AFA0028B5D1EE
:102EF0007068AA68036807A99B6990E70224EDE659
:102F00000018480040E20100024A034903481DF04E
:102F10005CBC00BF0000002025280000400000200D
:102F200000F1080373B5044603600D46E1B108469D
:102F30001EF039FE0F2805EB0006019007D900228C
:102F400001A920461DF054FC019B2060A36020686D
:102F5000324629461DF084FC019B226863600021F3
:102F60002046D15402B070BD01481DF036FC00BFB0
:102F7000AA20020070B50D46044606460FCD0FC6C6
:102F80002B6833600021C4E90611A182A17521627A
:102F9000202204F124001EF0D7FB204600F056FA50
:102FA000A062204670BD036B70B504463BB1D86883
:102FB00008B11CF037FA206B08B11CF033FAD4E9E1
:102FC0000656AE4207D055F8040B0028F9D0036826
:102FD0005B689847F5E7A06908B11CF021FA204624
:102FE00070BD00002DE9F04F036B87B004463BB184
:102FF000D86808B11CF016FA206B08B11CF012FA60
:10300000D4E9063200259A42194606D00968897E1D
:1030100004330029F7D10135F5E7002D00F0998040
:10302000554A6B1C93429ABF1C2058434FF0FF3007
:103030001CF0F4F906460346002D08DB18461C2256
:1030400000211EF081FB03461C33013DF4E7E369D8
:10305000A56901934FF000094FF01C0B019BAB4297
:1030600076D02B689A7E002A70D1D3E90D31904634
:1030700099421A4607D01268927E0433002AF7D18B
:1030800008F10108F4E7B8F1000F46D008F101009B
:10309000B0F1006F34BF00014FF0FF301CF0BEF9FB
:1030A00007460346B8F1000F09DB1846102200213D
:1030B0001EF04AFB0346103308F1FF38F2E72B6895
:1030C0009A6BD3F8348002924FF0000A029B43457A
:1030D00020D0D8F80000827E0592C2B94FEA0A11CA
:1030E00007EB0A1304300491039300F0AFF904993D
:1030F000039B7850D8F80010059A098D19715A7100
:103100001E4A9A60D8F80020DA600AF1010A08F134
:103110000408DBE70BFB0963DF602868043000F07C
:1031200095F90BFB09F806EB0807144B46F8080065
:103130007B602B68BB602868FEF756FE0023BB74DB
:103140002B68388218337B6109F10109043585E762
:103150002663012304F8243F204606F095FE40B97B
:10316000204606F069FEB0FA80F0400907B0BDE8DD
:10317000F08F0020FAE700BF24499204A329000041
:103180002DE9F843D0E906588946164600244545FE
:103190002F460FD0386849460430043500F058F9FE
:1031A0000028F4D0B44202D13868BDE8F883013475
:1031B000A4B2ECE70020F8E72DE9F84FD0E9009839
:1031C00093466FF06043A8EB0902B3EBA20F0746EA
:1031D0008A464FEAA20402D11D481DF001FB012CD2
:1031E000224638BF0122A418A1EB09052DD23CB11B
:1031F0009C4228BF1C46A0001CF00EF9064600E0C9
:103200002646DBF800307351002D04DD2A4649467E
:1032100030461EF07FFAA8EB0A080435B8F1000F1B
:10322000354404DD4246514628461EF065FA4544C1
:10323000B9F1000F02D048461CF0F2F806EB840406
:10324000C7E90065BC60BDE8F88F1C46D3E700BF46
:103250006422020010B50A46D0E90114A14204D04C
:10326000126841F8042B416010BDFFF7A5FFFBE792
:1032700073B58B7E01910446084673B1D4E90625E7
:10328000002319469542164607D03668B04202F12F
:103290000402F7D181760123F4E7D4E906259542AB
:1032A000114609D00968884202F10402F7D121468B
:1032B000FEF79CFD02B070BD23B901A904F118000E
:1032C000FFF7C8FF21460198FEF790FDFEF718FEB4
:1032D000FFF700FBEEE77FB504464020039116465A
:1032E00002931CF099F8029B03990094B2B2054630
:1032F0000291FEF751FD029900222046FFF740FFA0
:1033000020462946FFF7B4FF284604B070BD10B52B
:103310008EB0044608A8CDE90032FFF701FE08A9E7
:1033200003A800F00DF8DDE9003203A92046FFF7FD
:10333000D2FF044608A81DF07DFA20460EB010BD4D
:10334000F0B50D4687B01422002104461EF0FCF9AA
:103350006B68042B09D110222868227000211EF00E
:1033600035FD6080204607B0F0BD082B08D1202332
:1033700028682370102200211EF028FD6060F1E70C
:10338000102B0CD12B68621C03F1100153F8040BB5
:1033900042F8040B8B42F9D180232370E2E7242BFF
:1033A00041D12868102201A91EF0B4FD05460198FC
:1033B000102201A901301EF0ADFD0F042B4647EA93
:1033C000104705040198002675194FF0100201A955
:1033D00000F1010043EB07071EF09CFD281847EBA6
:1033E0000101CDE902010198102201A901301EF06E
:1033F00091FD054601981022314601301EF08AFDEC
:103400002A04301842EB010102ABCDE9040103CBE1
:1034100004ABC4F80900C4F80D1003CBC4F80100D4
:10342000C4F80510B8E70023B7E7007870470378C1
:10343000202B05D0802B05D0102B05D102307047F2
:10344000043070470130704700207047704700001B
:103450002DE9FF41057806460C46002D60D00A781C
:10346000002A5DD0AA4234D02E4B6F4603F1100ED5
:10347000B84618685968BC46ACE803000833734581
:103480006746F6D1802D15D12046FFF7D0FF102AD0
:1034900001460CBF0222042203A81EF02DF930467B
:1034A000FFF7C5FF102241461EF018F9B0FA80F070
:1034B00040091BE0802A33D13046FFF7B8FF102DBA
:1034C00001460CBF0222042203A81EF015F9204673
:1034D000E6E7102A0DD1FFF7AAFF02460846FFF7DC
:1034E000A6FF138800881B1A5842584104B0BDE853
:1034F000F081202A08D1FFF79AFF02460846FFF71D
:1035000096FF13680068EEE7802A09D1FFF78FFF66
:1035100005460846FFF78BFF102201462846C3E701
:103520000020E3E7B4220200064BD3F850253AB15D
:1035300022F00801042903D1D3F850159142FAE78B
:10354000704700BF0010004070B5002A3ED0224BEB
:10355000224A9B7AD35CC3F115031944C9B2204CAB
:103560001E2994BF821E00F1FF32D4F84005D4F822
:103570000435A0EB030020F07F4088BF1E3900F126
:10358000FF3088BFC9B2022822F07F4520D9EB1A4C
:1035900013F4000023F07F461AD1022E18D9114BE4
:1035A00001261E60C3F83415C3F834014FF480338C
:1035B000C4F84001C4F84055C4F844330A4B4FF0F6
:1035C0000041C3F80415044B5A6370BD1531C5E7BB
:1035D0004FF0FF30F9E700BFEC450020182502004E
:1035E00000B000400C80004000F001400B4A43F264
:1035F000FF43C2F8083301210023C2F800321161F1
:10360000074A0849C2F80815C021C2F80815064A39
:103610000221C2F88011054AD370704700100040A3
:1036200000F001403000B08200E100E0EC450020F5
:1036300010B519F09DF9104B012200241A60C3F84F
:103640003425C3F834410BF0DBFD0C4B03304FF451
:103650008032C3F84041C3F84005C3F8442303F562
:10366000A0334FF00042C3F80425054B586319F00E
:1036700087F9204610BD00BF0C80004000B000401C
:10368000EC45002008B5134B9A7A82421A460DD0B9
:10369000114B032817D8DFE800F014020A0F0321AA
:1036A000C3F810150D49C3F81415907208BD042114
:1036B000C3F810150A49F6E70521C3F810150949A2
:1036C000F1E70621F9E7084B084A09484FF4E5718C
:1036D0001CF0BAF8EC450020001000400801100072
:1036E00008011001080190632A250200402402000D
:1036F000C422020008B5034A034B044840F2723169
:103700001CF0A2F87A2402002A250200C42202003A
:1037100010B53B4B3B49D8793B4A38B33B4C987A80
:10372000C2F8044502F560420328C2F80C45C2F80D
:1037300010153749C2F8141556D8364951F82010DB
:1037400041F0807141F00101C2F804153249C2F81C
:1037500008150021C2F80012C2F80811C2F80411BD
:103760000121116002F580324FF00071C2F804159A
:103770001A7A002A3AD0294A0321C2F800152849AA
:10378000C2F808152749C2F814150021C2F8001123
:10379000C2F80411C2F80811234A4FF41001C2F80C
:1037A000081500229A710122DA709A7A032A24D02D
:1037B000002A0CBF052200225A73134B0832C3F8AB
:1037C00060250022C3F80421C3F81421C3F828217E
:1037D000C3F81C21C3F8302140F25312C3F8002271
:1037E0001222C3F8042310BDFFF784FFDA79002A00
:1037F000D2D10A49C1F80025CEE70522DCE700BF97
:10380000EC4500207F0400200010004078030020D9
:10381000244600202C2402003047002000F0004005
:103820008C530020FC45002000F00140014BD87271
:1038300019737047EC45002008B5074B9B7A032BA2
:1038400002D8064AD05608BD054B064A064840F243
:1038500003211BF0F9FF00BFEC4500203C240200CF
:103860002A25020053240200C422020083072DE906
:10387000F04106D0244B254A254840F221211BF077
:10388000E3FF8B684D79B3F800E00A8AAEEB0505DB
:10389000043D0F46AA42944628BFAC462CF0030CC8
:1038A0003E68A7F806C0A2EB0C02E046444603E0DF
:1038B00050F8083046F80830B8F10408F8D5001977
:1038C0003619032A03D8A5EB0C05AA4202D9FF68D2
:1038D0007546DFE7FB881344FB8001E0835CB3544B
:1038E000013AFBD50B4A01F1180302F11005144609
:1038F00003CCAC4218605960224603F10803F6D1AC
:1039000020681860BDE8F0811A23020067240200D5
:10391000C42202000446002010B5174B01289C7AEF
:10392000164B05BF164AD3F84835D3F84035525CDC
:1039300014490CBF993328331A44134B31F814102F
:103940001B5D124C0B441A440C4B1149C3F84C2517
:103950000022C3F84C2130200122C1F80405226066
:10396000D3F84445D3F84C359C4282BF094BC1F88B
:1039700008051A6010BD00BFEC4500200080004023
:103980001C2502000825020010250200448000408A
:1039900000F00140101000402DE9F0473F4F404D2E
:1039A000DFF820813F4840F201137B812823BB7060
:1039B0003D4B0024012643F2FF423E73BC734FF09F
:1039C0000309C3F8FC4FC3F8FC6FC3F80823374A58
:1039D000C3F81095C3F81425354AC3F81825D3F851
:1039E00050263243C3F8502640F20312C3F82C4548
:1039F000C3F83065C3F8342540F25B62C3F838255C
:103A00009622C3F844254FF0FF3A4FF04063C8F8C0
:103A100004354FF48672C5F808A32146C5F8006244
:103A2000C5F808411DF090FE224B3C61C5F80835F1
:103A3000214BC5F808A30422C5F80041C5F804418C
:103A4000C5F80841C5F804451E60DE60C3F804955A
:103A5000C3F80045C3F80C25A3F5DE43C8F830359C
:103A600003F5DE434833C8F8343503F58073C8F8EE
:103A70003835124D1249A3F5E2433C3BC8F83C35BA
:103A8000304685F801430CF019F902232B603B788E
:103A900003B93E700020BDE8F08700BFEC45002070
:103AA00000F00040244600200010004008011000F3
:103AB000FF0003028C5300200480004000E100E07E
:103AC0007D3C000000F00140F0B5104D03F1100600
:103AD0002C4653F8047B45F8047BB342F9D12061AE
:103AE00061611368C4F819305368094A53609DF83E
:103AF00014302376074B0122DA71074B0022C3F8FA
:103B000000250222C3F80025F0BD00BF3047002089
:103B100049470020EC45002000F00040024B1861AE
:103B200059611A76704700BF30470020094B4FF0AB
:103B30000072C3F80825A3F57F43F83B01221A6001
:103B4000054A0023C2F80831C2F80035034AD37190
:103B5000704700BF00F0014000F00040EC4500203D
:103B6000014BC3E90B107047EC45002007281ADC15
:103B700025D0062823D0052821D004281FD00328CB
:103B80001DD0002811DA031D11DA10F1080F11DA27
:103B900010F10C0F11DA10F1140FB4BF6FF0270001
:103BA0006FF01300704708207047002070476FF0D7
:103BB000030070476FF0070070476FF00B0070470D
:103BC00008B5FFF7D3FF034BC3F80C05024B587041
:103BD000002008BD00100040EC450020014B987308
:103BE000704700BFEC450020272838B506D9144B94
:103BF000144A154840F634011BF026FE134C144DB0
:103C00000B02C4F81C35D4F8243523F0FF0343EA33
:103C10001163C4F8243569610E490B6823F0807381
:103C200023F0010343F080730B600B4BC4F83C2579
:103C30001B5CA870C4F80835C4F85405002038BDD2
:103C400034230200D0240200C422020000100040ED
:103C5000EC45002074170040E0240200054A0123CF
:103C60001360D360044B4FF48032C3F84823FFF74E
:103C7000BDBC00BF0480004000B00040F8B5A84BB8
:103C8000A84CD3F8047317F0020F58D0D3F80421CE
:103C9000002A54D000250222C3F80451C3F8082397
:103CA00003F5F0333022C3F808250CF0A3FDA37808
:103CB0002083A376E576FFF7BFFDA27A6077032A1B
:103CC00000D03AB9964BD3F8143413F0060F14BF52
:103CD000002203220023616B2362934B6162D3F8BD
:103CE0004405924D924BAD5C33F81230A2772B44D1
:103CF000984238BF1E30A0EB030538BF01F1FF31F9
:103D0000284638BF61630BF07FFA06460BF084FA51
:103D10002D1A1F2D606A824B04BF013600253044E6
:103D2000C4E90905D3F85025D3F82811F9B9002AB8
:103D3000F8D143F2FF41C3F80813C3F80022FB0691
:103D40003FD5774BD3F81021002A3AD0D3F80C2175
:103D5000E178002A38D1012902D1A279002A33D092
:103D6000744B754A40F2595174481BF06DFD237A2B
:103D7000F3B1734AD37859061AD503F00F03072B12
:103D80000CBF02230023D91C0A446E49C1F8102538
:103D9000A1F560410022C1F828216B4A4FF40000D0
:103DA000C2F80405627B083302EBC303C1F8603537
:103DB000664AA17866480CF037FC00287DDB0123B9
:103DC000A37100236371F8BD002210200129C3F8FC
:103DD0000C21C3F81021C3F8080306D0022972D0C1
:103DE0005C4B554A40F27451BEE7A079002867D079
:103DF000554A4FF40011C2F80815D3F81C2122B916
:103E0000554B564A40F24641AEE7D3F84815A27BDF
:103E1000D3F830314A4D521A13F0FF0F22771DD0DC
:103E2000238B43F080022283E279BAB12979454A93
:103E300029B1D2F8001411B943F0A0032383D2F8BA
:103E400008311BB1238B23F0800323833D4BD3F830
:103E500004311BB9238B23F080032383E07A404E87
:103E6000FFF710FC3048A27F3E49D0F848358A5C05
:103E70003D496E339B1AA27A8A5C9B1AC0F8403582
:103E8000314A0023C0F840314FF480110123C2F8B9
:103E900004153360D0F84C65D0F84005864284BFE5
:103EA000C2F8081563712B796B71EB7827492F489D
:103EB0002B710CF0E5FB002883DAFFF7CFFE80E7DB
:103EC0000CF060FB7DE7E379A57A2BB11D4BD3F8AD
:103ED000081109B1C3F80821236B0BB1E06A9847B8
:103EE0002379022B46D1207BFFF7CCFBFFF710FC98
:103EF000002229460120FFF70FFD0B4A1C49D2F88A
:103F00004835495D6C330B44C2F840350023C2F894
:103F100040310D4B4FF40012C3F8042551E700BFA8
:103F200000100040EC4500200080004010250200F9
:103F3000082502004D230200B9240200C422020019
:103F40007C04002000F0004000F001400446002006
:103F50007F0400202A250200C3230200A6240200B9
:103F60004C80004014250200182502008004002027
:103F70001C250200074901220A60CA60064A074957
:103F8000C2F80815002B3FF41CAF054B054A40F260
:103F90001B41E9E60480004000F001403000108041
:103FA000E22302009324020010B5FFF7BDFA144A81
:103FB000D2F85015134649B1D2F8502502F0070245
:103FC000022A03D0FFF74AFE012010BD43F2FF4250
:103FD0000024C3F80823C3F80C41C3F81041FFF7CD
:103FE00097FB084BD3F800359B0206D4064B074AD3
:103FF000074840F292611BF027FC2046E5E700BF2E
:104000000010004000F0014008240200C524020016
:10401000C422020037B5114B114C01910546187BA3
:10402000FFF730FB4FF4801328460199C4F8083598
:104030000022FFF789FA254670B1FFF7F9FA01244B
:104040004FF40013C5F80435FFF7AEFF10B9002C8C
:1040500018BF062003B030BD0446F1E7EC45002050
:1040600000F001400B4A08B501231360D3600A4BEE
:104070004FF48032C3F84823FFF7B8FAFFF7D8FAB5
:10408000064B4FF40012C3F80425BDE80840FFF7C3
:104090008BBF00BF0480004000B0004000F0014032
:1040A00037B50D4B0D4D01910446D87AFFF7EAFA6A
:1040B0004FF400130199C5F8083501222046FFF797
:1040C00043FA20B1FFF7CAFD052003B030BD4FF41D
:1040D0008013C5F80435F8E7EC45002000F00140F6
:1040E0002DE9FF41334C80466079164628B1FFF731
:1040F000B5FD052004B0BDE8F0810191FFF714FA89
:104100002D4B2E4AC3F80825E2792D4F0199A3F5CE
:104110008033002A44D00122C3F80022294D2A4AC4
:10412000C3F80C55C3F81075C3F81425C3F808017B
:10413000A27A032A32D8254850F8222042F0807211
:10414000C3F80425224AC3F808250DF10F02E81C24
:10415000C0479DF80F302B700023AB70E379687077
:1041600013B11C4B01221A601B4900230322C1F822
:104170000475C1F80031C1F80C31C1F81031C1F833
:1041800000221022C1F8042326716072D1F8502554
:104190000B2A0AD00222E2701846ABE7FFF7AAFA10
:1041A0000E4AC3F808253D46CFE7FFF757FD01202B
:1041B000A0E700BFEC45002000F001403000800285
:1041C0008005002078030020244600202C240200D3
:1041D0003047002000F00040001000408C530020C9
:1041E000014B5869704700BFEC450020014B98799E
:1041F000704700BFEC450020024BD3F85005C0B219
:10420000704700BF00100040FB207047044B1A7835
:10421000044BC3F80425044B01221A72704700BFF7
:104220008853002000F00040EC450020014B0022A4
:104230001A727047EC4500201BF082BB1BF0BCBB20
:10424000936813B5186814460AF0FFF828B91E4B96
:104250001E4AD4211E481BF0F7FAB0F5285F08D09B
:1042600042F6012398421CD01A4B184A4FF482712F
:10427000F0E7237863B918481DF095FC164982B21F
:1042800060680BF0A8F8002818BF112002B010BD1C
:10429000012B104B02D1114A7E21DBE70B4ADD21B5
:1042A000D8E723783BB90E4B1B88ADF806300222C5
:1042B0000DF10601E4E7012B08BF0A4A054B16BFC2
:1042C000024AA721E821C5E720250200DB250200DC
:1042D0002C2502002A250200A400002092250200BD
:1042E00084060020B725020037B501901DF05BFC65
:1042F0001F2804460AD8064D0199024628461DF09B
:10430000FBF900232B55184603B030BD0320FBE713
:10431000A400002008B50A4805F0B6FD30B1094BED
:10432000094A4FF4A57109481BF08EFA044805F0BC
:1043300083FD20B1034B044A40F24D11F3E708BD61
:10434000002602008A250200EE2502002C2502002C
:1043500010B51478134634B90449586801220BF09B
:104360003AF8204610BD0320FCE700BF8A06002073
:1043700037B5137815467BB901220DF1070105F019
:10438000C9FB044678B9686801220DF107010BF0FA
:1043900022F8204603B030BD012B06D1516805F04C
:1043A000D7FB0446F5E70E24F3E70024F1E700000D
:1043B00070B5147815462CB1104B114A9421114850
:1043C0001BF042FA506804210BF024FA064690B123
:1043D000AA680D4B9A4203D00C4B094A9C21EEE788
:1043E0000B4B19880AF028FE0A4BB01C19880AF0FA
:1043F00023FE204670BD0620FCE700BF20260200F9
:10440000DE26020048260200D4000020A826020072
:104410008C06002088060020034B1880034B19806F
:10442000034B188805F024BB8C060020880600206A
:104430008606002008B5094805F026FD28B1084B7E
:10444000084AE72108481BF0FFF9044805F0F4FC8E
:1044500018B1034B034AEA21F4E708BD0427020020
:104460008A250200F226020048260200F7B510F065
:10447000400705460E4614460CD11068018A0BF021
:1044800055F80623009321683B462A46304600F043
:10449000B3FD276003B0F0BDF7B5044607F04EFC4E
:1044A0004FF6FF73984205461CD00DF107032069B3
:1044B000012200210BF014F804F11007034698B90B
:1044C0009DF80700144E327890420FD006F108068E
:1044D00002D301331D2BF6D13A462946FFF7C6FF1A
:1044E000082415E0072413E0042411E020690121C9
:1044F0000BF01CF87368394628469847044638B1D3
:10450000082C05D19DF807003A462946FFF7AEFF73
:10451000204603B0F0BD00BF2427020013460A4620
:10452000042107F0F3B87047172938BF172181819C
:10453000704710B5044607F0D1FB30B1A38923B111
:104540006089984228BF184610BD1720FCE710B5B7
:104550000C46FFF7EEFF218A0B1A002B05DD411AEE
:104560002046BDE810400AF0E1BF10BD1FB5019024
:1045700005F05EFE019802AA03A9FFF7CFFF40B93C
:104580000298FFF7D6FF044605F054FE204604B01B
:1045900010BD0024F8E7000008B507F07FFB38B134
:1045A00004230381C380034B1B884381024B836137
:1045B00008BD00BF8E06002099440000024B4FF456
:1045C00080721A80002070478E06002070B50D465C
:1045D00006460421284607F07AF8044638B92B68C5
:1045E0001B683046DA78B3F8011004F019FA204657
:1045F00070BD73B50D4606460221284607F067F8E0
:10460000044620BB2B681D6805F012FE214601AA56
:104610003046FFF783FF0446B8B929880198FFF7B1
:1046200083FF0198FFF785FF054605F003FE24B9D7
:104630002A460421304603F033F830462A46214604
:1046400004F008FA204602B070BD0025EDE7002511
:10465000F3E773B5064615460C4679B191420DD87D
:10466000042101AA084600F06FFA48B10480458091
:104670000199304600F07AFA02B070BD0320FBE7E2
:104680000620F9E72DE9F0430C4687B007460121E3
:10469000204607F01CF8054640B920680121D0F8F3
:1046A00000900AF043FF23681B8A3BB9384629462D
:1046B00004F00EFA284607B0BDE8F08399F80060D0
:1046C000012E1BD0022E24D14FF012084146204665
:1046D00006F0FDFF10BB236818680AF0CEFC012E1F
:1046E000ADF800000DD0022E15D0206841460AF02A
:1046F0001DFF6946384604F0C2F9D4E74FF00408BC
:10470000E4E702231A46216801A809F0C0FE002848
:10471000EBD00A25CAE710233246F4E70546C5E781
:104720002DE9F341DDF82480064615461F460C4668
:10473000B9B1914215D801AA08F10601062000F08E
:1047400003FA80B10899048045808780424606308C
:104750001CF0D2FF0199304600F008FA02B0BDE823
:10476000F0810320FAE70620F8E737B505460C4646
:104770002368198A29B9284604F0F7F9002003B004
:1047800030BD0421204606F0A2FFA8B920680368C6
:1047900059781A7842EA0122ADF804209A78DB7839
:1047A000042142EA0323ADF806300AF0BFFE01A956
:1047B000284604F0AFF9DBE70A21DCE7F7B5074646
:1047C00016461D460C46B1B1914214D8184609F060
:1047D0009BFE01AA011D082000F0B6F968B1011D79
:1047E00004804680284609F065FE0199384600F0AD
:1047F000BDF903B0F0BD0320FBE70620F9E72DE982
:10480000FF410C4606460121204606F060FF0546A2
:1048100060B9206803681F7801210AF087FE012F24
:1048200026D9A7F1020823681B8A3BB930462946DE
:1048300004F0D4F9284604B0BDE8F081394620469A
:1048400006F045FFB0B923681B6859781A78CDF88F
:10485000088042EA0122023301A93046ADF8042063
:10486000039304F0A5F9206839460AF05FFEDAE701
:104870000A25DBE70546D9E737B505460C4661B1A1
:1048800001AA02210A2000F05FF940B104800199D9
:10489000284600F06BF903B030BD0320FBE706208B
:1048A000F9E708B50A46002104F000FA002008BD27
:1048B00073B5054616460C4669B101AA04210C20C1
:1048C00000F042F948B1048046800199284600F082
:1048D0004DF902B070BD0320FBE70620F9E708B5EB
:1048E0000A46002104F0FAF9002008BD08B50023AB
:1048F0000A46194604F007FA002008BD0820704750
:10490000F7B5074616461D460C46B1B1914214D87C
:10491000184609F0F9FD01AA011D102000F014F954
:1049200068B1011D04804680284609F0C3FD019945
:10493000384600F01BF903B0F0BD0320FBE706206A
:10494000F9E72DE9FF410C4606460121204606F015
:10495000BEFE054650B92068036801211F780AF0A1
:10496000E5FDA7F1040823681B8A3BB930462946B8
:1049700004F078F9284604B0BDE8F081042F20DD6A
:104980003946204606F0A3FEE8B9236818680AF005
:1049900074FB2368ADF80400186802300AF06DFB60
:1049A0002368ADF806001B68CDF80880043301A920
:1049B0003046039304F028F9206839460AF0B6FD22
:1049C000D1E70425D2E70546D0E708B504F0B1F9F0
:1049D000002008BDF7B5074615461C460E46F1B146
:1049E0001B8A1344B3F5007F19DCFFF7BFFD238A50
:1049F0000438984213DD01AA0421162000F0A4F81F
:104A000090B145800680214601980AF0E7FE0199A1
:104A1000384600F0ABF80546284603B0F0BD032544
:104A200020460AF0C5FCF7E70625F9E72DE9F34132
:104A30000D4606460421284606F049FE044690B974
:104A4000286803680421B3F800805F880AF06EFDCF
:104A5000304600953B464246214604F07BF920460D
:104A600002B0BDE8F0810027B846F1E737B504464B
:104A70000D4601AA0121182000F066F830B105703A
:104A80000199204600F072F803B030BD0620FBE724
:104A900008B5002104F07CF9002008BD73B5064676
:104AA00015460C4691B101AA02211B2000F04CF8DA
:104AB00088B10480294601980AF090FE0199304699
:104AC00000F054F80446204602B070BD0324284686
:104AD0000AF06EFCF7E70624F9E773B506461546BB
:104AE0000C4691B101AA02211D2000F02DF888B1D9
:104AF0000480294601980AF071FE0199304600F0C1
:104B000035F80446204602B070BD032428460AF05A
:104B10004FFCF7E70624F9E708B504F04FF9002049
:104B200008BD013170B589B20646104615460AF037
:104B300071FE044620B928460AF03AFC204670BDB2
:104B40002C6804F8016BF9E737B515460446019166
:104B500006F0A7FD0246286030B10199204603B057
:104B6000BDE83040FFF7DDBF03B030BD37B50B689F
:104B7000044618780D46FFF7D6FC05F059FB204691
:104B80006B4601AA042106F0D9FD044638B1284637
:104B90000AF00EFC05F04EFB204603B030BD009835
:104BA0002946FFF7D4FCDDE900102A4607F064F936
:104BB0000446EFE710B5144606F089FD06280CBF41
:104BC0001123002304B1237010BDF8B5069F1D46C4
:104BD0003B78102B038A16460CBF0622142213447E
:104BE0008B4211DC11460AF015FE044670B13146C5
:104BF0000AF022FA2946A01C0AF01EFA211D3846A6
:104C000009F058FC0020F8BD0420FCE70620FAE774
:104C100010B5034C206819F05AFA0023236010BD28
:104C20009006002013B50C46019005F001FB019899
:104C300005F096FD036E236002B0BDE8104005F05C
:104C4000F9BA2DE9F0470646147AA6B017461D4674
:104C50008846A1B1E00705D402232B70102026B0AE
:104C6000BDE8F08704F0040A04F0080904F0100419
:104C700044EA090353EA0A030CD10020EFE7A10735
:104C800001D40323E9E704F0200A04F0400904F00A
:104C90008004EDE769463046FFF7C4FF59EA0A038E
:104CA0009DF8003039D013F0010A2CD105F0C0FA7C
:104CB000304605F03DFD90B101A905F06FFD1C22C5
:104CC000514609A81CF040FDDDF80B00BDF80F208F
:104CD0009DF811300890ADF824208DF8263005F0AD
:104CE000A9FA10A908A809F0DCF950B99DF86830B4
:104CF00013F0010F0CBF05200F20287000F5807005
:104D0000ADE70520F9E7B9F1000F06D09A0704D402
:104D100005232B7040F20510A1E77A7AB2EBD30F8E
:104D200004D90C232B704FF4867098E7002CA4D084
:104D3000304605F0FDFC90F86130DB079DD47989A1
:104D40004246304602F0DCFC022896D108232B7044
:104D50004FF4847083E72DE9F04186B00546039354
:104D600000238DF817304FF6FF7398420C9F0C46C6
:104D700016460FD12369019303AB0093D4F80C803E
:104D80006189334601222846C04778B18DF8170063
:104D9000092007E00A460DF117030121FFF751FF33
:104DA0000028E7D017B19DF817303B7006B0BDE87A
:104DB000F08173B504460DF1060015461E460AF053
:104DC0003BF902220DF1060120460AF004FB20B156
:104DD00011233370062002B070BD29460DF1060084
:104DE0000AF02AF902220DF1060120460AF0F3FA30
:104DF0000028EDD10120EEE710B5044640B18068EF
:104E00000AF0D6FA21460348BDE810400AF0AFBECA
:104E100010BD00BF00070020F0B51D4685B04FF65D
:104E2000FF730C4698424FF00001064617468DF876
:104E30000F100DD123696189CDE900730222E76863
:104E400000233046B84750B18DF80F00092006E026
:104E50000DF10F032246FFF7F4FE0028EAD015B14A
:104E60009DF80F302B7005B0F0BD2DE9F04385B0F3
:104E70000446DDF83490039190461F4606F011FC7D
:104E8000054600B303460399CDF800902046002262
:104E9000FFF761FF044630B92E8A46450AD90E2332
:104EA00089F80030042428460AF082FA204605B02A
:104EB000BDE8F0833B460146324628460AF010FB27
:104EC0000C9B1E80EFE70624EDE700002DE9F04182
:104ED000804612480F4616461D460AF021FE04463B
:104EE000B8B10F4BC0F804801A880772013292B231
:104EF0001A80069BC360079B03610A4B4672596880
:104F00004281002020600C605C6025B12A80BDE8F1
:104F1000F0810620FBE72846F9E700BF9406002051
:104F2000B8060020BC060020014B1888704700BF5F
:104F3000B8060020044A0346106800B97047428949
:104F40009A42FBD00068F8E7BC06002037B505465A
:104F5000084601921C46FFF7EDFF019A014628B969
:104F60000CB101232370052003B030BD2346284631
:104F700003B0BDE83040FFF74FBF000070B50D46ED
:104F8000164640B90A4B1C681CB16389B34204D968
:104F90000024204670BD0468F6E7002DF9D0606853
:104FA000294609F037FA0028F3D02468ECE700BF5F
:104FB000BC060020026822B14068401A20EAE07076
:104FC00070476FF00040704737B504460846CDE99A
:104FD0000032FFF7AFFF069DDDE90032014628B938
:104FE0000DB101232B70052003B030BD204603B066
:104FF000BDE83040FFF7AFBE2DE9F04105460C4655
:10500000174601200A4604219DF818801E46FFF726
:1050100088FD50B1077080F80380A0F80160214638
:105020002846BDE8F041FFF7A1BD0620BDE8F081AC
:105030002DE9F04385B007469DF830801446994627
:105040000E4611B1B8F1000F3BD005F0F1F802AAFD
:1050500003A93846FFF762FA054690B956BB2368A4
:105060001878FFF760FA21460298FFF770FA224697
:10507000DDE9021006F000FF051E18BF4FF00E0814
:10508000344605F0D7F875B1B4B906F00AFB04460A
:1050900048B12146BDF83430CDF800804A46384644
:1050A000FFF7AAFF002420460AF082F9284605B03F
:1050B000BDE8F0833546E4E7218A20460AF036FA57
:1050C000E7E70D46EFE72DE9F043884687B006464F
:1050D0000DF10F0202214046FFF76CFD4FF0000971
:1050E000044600285AD1D8F800301B681F888DF874
:1050F0000F0005F09DF8214605AA3046FFF70EFA8D
:10510000044610B9059BB3F80A9005F093F8002CFB
:1051100042D1D8F80050C8F80040298A28460AF041
:1051200005FA2A4602210320FFF7FBFC88BB112366
:105130008DF80F300624002301939DF80F30009363
:10514000214602232A463046FFF772FF0446E0B9A3
:1051500005F06EF804AA05A93046FFF7DFF904460A
:1051600058B939460498FFF7DFF90498837B43F078
:1051700001038373FFF7DDF9074605F05BF824B9F7
:105180003A460421304602F08BFA204607B0BDE8CB
:10519000F083A0F80090CEE70025CCE74D464F46BF
:1051A000C9E700002DE9F04F0E4687B08146002484
:1051B0000DF11702042130468DF81740FFF7FAFC75
:1051C0000546002872D134682368B3F80080B3F82C
:1051D00002A0D04502D8B8F1000F12D101238DF8FA
:1051E000173000240A259DF817300093CDF804806D
:1051F0000423224629464846FFF71AFF07B0BDE8B8
:10520000F08F218A306020460AF090F92246012171
:105210000520FFF786FC074620B911238DF81730CB
:105220000625E0E74846FFF7A1F9214B3D701E68CF
:105230000290AB4616B173899A4505D2BBF1000FB7
:1052400016D04FF00008CEE798452DD871683B780E
:105250000978102914D183B901233B700421238AD2
:10526000029A0B449342E9DC20460AF0D3FA80B953
:105270000A238DF817300525B5E7012BEED0DDE7C1
:1052800023B94FF002033B701221E8E7022BFBD059
:10529000D4E77189039009F0CFFE039B7068991CD5
:1052A00009F008F90BF1010B3668C3E7A0469AE74D
:1052B000BC0600202DE9F04F2DED028B0F468BB080
:1052C000824600250DF11102062138468DF8115055
:1052D000FFF770FC0646002840F0D5803B681B684D
:1052E000B3F80080B3F802B0D84502D8B8F1000F87
:1052F00014D101238DF8113000250A269DF81130B4
:105300000093CDF8048006232A4631465046FFF725
:105310008FFE0BB0BDEC028BBDE8F08F9C8806F0D1
:10532000C0F9054650B1024631460720FFF7F9FBA8
:1053300060B911238DF811300626DFE711233D688F
:105340008DF811303E6006242646D7E75046FFF719
:105350000DF93B68ADF8164008EE103A10238DF8B1
:1053600014304B4B02901F68B146344697B9BCB11C
:105370002B8A02991A1D914213DB21460DF111036C
:105380004A462846FFF715FD0128044608D0002CA0
:10539000DAD105E07B89984514D84CB99B4540D2B9
:1053A0002B8A012B71D80A238DF811300524CBE705
:1053B0009DF81430102B20D17A681378102B03D06D
:1053C000B7F80A903F68D1E705A8039209F03DF8C5
:1053D00042F601018842039A0BD8B0F5205F0CD346
:1053E000104609F032F8A0F5205080B20128E7D825
:1053F00003E042F60301884236D02B8A029A043336
:105400009A42CDDB21460DF111034A462846FFF7AB
:10541000D0FC01280446BAD17B895B45C0D84FF047
:105420000009786805A908F0F5FF50BB0DF11103DC
:1054300001930DF112030093102206AB394650463A
:10544000FFF713FD044600287FF47EAFBDF812304D
:1054500018EE100A06AA06210AF0B4F80028B1D105
:10546000B7F80A904C46ADE70390104608F0EDFF00
:10547000A0F5205292B2012ABFD9039B98429FD136
:10548000BBE700249EE7A84638E74FF0000835E761
:10549000BC0600202DE9F04F0B681E8A95B0002550
:1054A000062E81460F468DF8255001D0142E13D1BB
:1054B0000DF1250A524631463846FFF77BFB04467C
:1054C00028BB39680B681D885B8806939D4200D80D
:1054D0008DB901238DF8253000260A249DF825304A
:1054E000009301950823324621464846FFF7A0FD68
:1054F00015B0BDE8F08F0DF13C0B331F0422584668
:1055000008F0C5FF044628B104248DF82540002585
:105510002E46E3E73E688DF82500318A3860304634
:105520000AF004F8324601210920FFF7FAFA039045
:1055300030B91123039D8DF8253006200446CDE7B0
:105540004846FFF713F8A046049005942746CDF887
:105550001CA03846069A5946FFF710FD074600285A
:1055600055D04389AB42F4D3079B01930DF1260339
:10557000009301460AAB13224846FFF776FC60B160
:105580007D89059B73BB9DF8253013B90A238DF8DF
:1055900025300028D2D10524A0E7049BBDF82620A1
:1055A000033B9342DEBF049B043BADF82630BDF8BD
:1055B00026A0B8F1000F01D0D045E2D1328A049B79
:1055C00002325244934224DB0AF1020189B230468E
:1055D0000AF020F978B9059B7D8911228DF82520E4
:1055E000CBB1D04600238DF82530039B08F102088B
:1055F00083F8008072E77A8920F8022B0AA9BDF8A7
:1056000026201CF079F80123D0460593A1E7052058
:10561000B7E7D046B5E7062090E72DE9F04385B01F
:105620000D460DF10F0780464FF000093A46022162
:1056300028468DF80F90FFF7BDFA044648BB2E6848
:105640003368318AB3F800902860304609F06EFF65
:10565000324621460B20FFF764FA88B911238DF8F2
:105660000F3006249DF80F300093CDF804900A23E4
:10567000324621464046FFF7DBFC05B0BDE8F0832B
:1056800022460097334649464046FFF79DFC0446B4
:10569000E8E74E46E6E72DE9FF470F460DF10F0913
:1056A000804600264A46042138468DF80F60FFF7F1
:1056B00081FA044650BB3D682B68298A1E88B3F8DE
:1056C00002A03860284609F031FF2A4621460D2005
:1056D000FFF727FA80B911238DF80F3006249DF8C3
:1056E0000F30009301960C232A4621464046FFF7CF
:1056F0009FFC04B0BDE8F087CDF800902B465246E1
:1057000031464046FFF760FC0446E8E73546E6E7E9
:105710002DE9FF4700240E4607468DF80F40FEF79F
:1057200025FF804605F0BDFF054690B102462146A3
:105730000F20FFF7F6F9044668B10DF10F0A336840
:105740001B8A012B02D92B8A434516D30024A1467C
:1057500006E03568346011238DF80F304FF00609EC
:105760009DF80F30009301940E232A46494638468F
:10577000FFF75EFC04B0BDE8F087524602213046D8
:10578000FFF718FA8146A0B93368186809F075FC6C
:1057900002210446306809F0C9FE4A46CDF800A04F
:1057A0002B4621463846FFF70FFC81460028C6D01D
:1057B000D6E70024D4E72DE9F04F85B000258846D0
:1057C00081468DF80D50FEF7D1FE824605F069FF47
:1057D000064650B1024629462120FFF7A2F9C8B972
:1057E00011238DF80D30054606E01123D8F800602E
:1057F0008DF80D30C8F8005006249DF80D30009348
:1058000001952023324621464846FFF711FC05B09A
:10581000BDE8F08F2946022009F0B2FD0DF10D0B15
:105820000746D8F800301B8A012B02D9338A53452A
:1058300002D300252C4638E05A4602214046FFF7A5
:10584000B9F9044680BBD8F80030186809F015FC97
:1058500002210546D8F8000009F068FE2246CDF87E
:1058600000B03B4629464846FFF7AEFB0446E0B988
:105870003B8AADF80E3002220DF10E01304609F0E0
:10588000AAFD044698B9BDF80E30002BC9D00246D7
:105890003946304609F0FDFD044640B9BDF80E100A
:1058A000384609F043FEBCE70025002FA5D0384656
:1058B00009F07EFDA1E700002DE9F04F0B680F46CF
:1058C000198A95B00025062981468DF8155001D01A
:1058D000142913D10DF115023846FFF76BF9044670
:1058E000002840F0D48039680B681D885B880293DB
:1058F0009D4200D88DB901238DF8153000260A2469
:105900009DF81530009301951023324621464846F4
:10591000FFF78EFB15B0BDE8F08F0B8A0422043B25
:105920000AA808F0B4FD834608B10423E4E70AA8F6
:1059300008F08BFDA0F5205080B2012805D9102376
:1059400026468DF815301C46DAE748468DF8154096
:10595000FEF70CFE3E683C60318A8246304609F014
:10596000E5FD324601211120FFF7DBF8804620B922
:1059700011238DF815300624C2E7484A80F800B09C
:1059800017685C465A4697B9002A6CD04FF6FF74E8
:105990000FAB0093514623463046FFF716F9062811
:1059A00008BF1123044608BF8DF815305CE07B89E1
:1059B0009D420ED8029999426CD3E2B17868039265
:1059C00008F043FDA0F5205080B20128039A02D9C7
:1059D0007C893F68D7E70FAB00935146234630469A
:1059E000FFF7F3F8044630B106287D8921D1112351
:1059F0008DF8153084E778680AA908F00BFD0028B7
:105A00003FD10DF1150301930DF116030093102200
:105A100006AB39464FF6FF70FFF727FA044638B950
:105A2000BDF8162006A90FA808F0D0FC044620B146
:105A30007D89042C08BF002462E798F80030062B0B
:105A40000DD0142B18D07BB99DF83C30102B0CBF17
:105A50000623142388F800307A891446B9E79DF8A4
:105A60003C30102BF8D00024338A022B0BD80A23A9
:105A70008DF81530052443E79DF83C30102BEBD111
:105A8000F1E70022A5E7002C3FF43AAFD1E700256B
:105A90002E4635E7002A7FF47BAFE4E7BC06002002
:105AA0002DE9FF410E46074600250DF10F020221A8
:105AB00030468DF80F50FFF77DF8044678BB336809
:105AC0001B68B3F8008005F0ECFD0546B8B102464E
:105AD00021461320FFF725F8A0B911238DF80F30C8
